:100000000C9450060C946D060C946D060C94A6325C
:100010000C946D060C946D060C946D060C946D0694
:100020000C946D060C946D060C94C2170C947D16FE
:100030000C94DC190C946D060C946D060C946D06F2
:100040000C946D060C946D060C946D060C946D0664
:100050000C946D060C9473190C946D060C946D063B
:100060000C946D060C946D060C946D060C946D0644
:100070000C946D060C946D060C946D060C946D0634
:100080000C946D060C946D060C946D060C946D0624
:100090000C946D060C946D060C946D060C946D0614
:1000A0000C946D060C946D060C946D06AD09BA099E
:1000B000B009BA09B309BA09BA09BA09B609BA093D
:1000C000B609BA09B609BA09B609E50CFB0C020D66
:1000D000540E540E3A0D4A0D5B0D970D9C0D540EA7
:1000E000540E540EA40D47124D123B1241125312DE
:1000F00059125F12BD123113C5128F129312C91219
:100100009612CC12D712A1122713A512DB12A91234
:10011000DF120913AD12E3121313B312E912F31233
:100120009A12D0129D12D312B812EE12FF121F13A0
:1001300021138B12C1123A131B141B144A144A14B4
:10014000DE140A160A160A16FA146E157F157F15A4
:10015000892AB02A652CB02A652CFC2A1F2B652C15
:10016000202C302C00DA0281FFD9F1DB20A4A62E4E
:10017000AF00A0C0D30000A1C8D30000AED580A8B6
:100180001F408D14200041646A75737400526169C8
:100190007365004C6F7765720044656661756C74B9
:1001A000004C617965723A20008081828384858663
:1001B0008788898A8B8C8D8E8F9091929394A0A141
:1001C000A2A3A4A5A6A7A8A9AAABACADAEAFB0B197
:1001D000B2B3B4C0C1C2C3C4C5C6C7C8C9CACBCCF8
:1001E000CDCECFD0D1D2D3D400FD377A585A00002B
:1001F00004E6D6B4460200210116000000742FE583
:10020000A3E0042F01425D003D8889C65436C31720
:100210004FE4DCCBB3DF6320E7D71739D83D5F521B
:10022000C90BECB7E6D5195224B0736759B3E0B4E3
:1002300056C74788C96520CF4A3C940C015E298681
:100240005C8E1FD2901470DD8177B2096EB5F6AE68
:10025000E987F3FD6E8628D433CFB875786A02A992
:1002600026DEE8E6250BF2F12FEB95EF757127C23C
:100270007F9195E2635AB0D245B872C0B554D700A9
:100280004EDE62BA2013945BD1FF5921584935657F
:100290008A11E5CA1A8401C66412A7BCC461E80ABF
:1002A0008B8F1814972CD485C2CA11139D81944545
:1002B0004D5141C1135A07F3F59C8A2EB089D73F9F
:1002C0003EF2C32110C396AA6256BA70B3106145BC
:1002D0005FB111971836BB16666F7B478FC44223F8
:1002E000D0767E3FA7ECEA0CBF2774C309BD093C5A
:1002F00035A8EED8AEC7E9FF0F2F64DF72C5CDF683
:10030000701A8177ECEF634989711EFAEC985A05EF
:100310009B0A0F6BC0B382F93085B0A8A630E1DE2E
:1003200091E0E101A42FEECFFAB4CC09FA55E9DC53
:100330003EB4782343F5F745FEAA6A7F620EBDEB13
:10034000FB2CF315BF380D4959E00000005614AAE4
:10035000DD3187545C0001DE02B0080000C0E5C05A
:1003600082B1C467FB020000000004595A2020201B
:10037000206162636465666768696A6B6C6D6E6F45
:10038000707172737475767778797A313233343567
:100390003637383930524542545F2D3D5B5D5C2322
:1003A0003B27602C2E2F2020202B0014001A000841
:1003B0000015001700E00004001600070009000AFD
:1003C00000E1001D001B00060019000500000000F0
:1003D000000000E300777C2C002A00130012000CC0
:1003E0000018001C00340033000F000E000D000B3D
:1003F000002900380037003600100011000000000E
:10040000000000E600787C28002B001E001F002062
:100410000021002200E000000000000000000000B9
:1004200000E10000000000000000000000000000EB
:10043000000000E30001002C002A00270026002510
:100440000024002300000000004F00520051005023
:10045000000000000000000000000000000000009C
:10046000000000E600010028002B001E021F0220F1
:100470000221022202E00000000000000000000053
:1004800000E100000000000000000000000000008B
:10049000000000E30001002C002A002702260225AC
:1004A00002240223023500310030002F002E002DDF
:1004B000003502310230022F022E022D0200000010
:1004C000000000E60001002800007C0000000000A1
:1004D00000000000002078237825782778000000AD
:1004E0000021782478267828780000000000000099
:1004F000000000E30001002C0000000000000000EC
:1005000000000000000000000000000000000000EB
:1005100000000000000000000000000000000000DB
:10052000000000E6000100280005010980A1018506
:100530000319012AB700150126B70095017510812E
:1005400000C0050C0901A101850419012AA00215AA
:100550000126A002950175108100C005010906A1C0
:10056000018506050719E029E7150025019508759D
:100570000181020507190029EF1500250195F07585
:10058000018102050819012905950575019102955A
:100590000175039101C00660FF0961A1010962159F
:1005A0000026FF009520750881020963150026FFCB
:1005B00000952075089102C005010906A1010507F3
:1005C00019E029E7150025019508750181029501BB
:1005D000750881010507190029FF150026FF009500
:1005E00006750881000508190129051500250195E2
:1005F0000575019102950175039101C009025B0027
:10060000030100A0FA09040000010301010009210F
:1006100011010001224400070581030800010904BB
:100620000100020300000009211101000122220043
:1006300007058203200001070503032000010904C8
:1006400002000103000000092111010001226D00D8
:100650000705840320000112010002000000085376
:100660004601000100010203011C037600690061DC
:10067000006C003A0066003600340063003200620D
:10068000003300630000000C0343006F0072006E33
:100690000065000000100366006F006F00730074B7
:1006A0000061006E00000004030904000000000067
:1006B000000000000000000000000000000000003A
:1006C0000000000000000000000000000000007EAC
:1006D0000F00D4FFFFFFC7000000780000000000FB
:1006E0000000002A2B28000000000000000000008D
:1006F00000000000000029000000002C1E34202112
:100700002224342627252E362D3738271E1F202158
:1007100022232425263333362E37381F04050607B7
:1007200008090A0B0C0D0E0F1011121314151617D1
:1007300018191A1B1C1D2F3130232D3504050607EF
:1007400008090A0B0C0D0E0F1011121314151617B1
:1007500018191A1B1C1D2F3130354C0000000000E9
:10076000003E5B4F5B3E003E6B4F6B3E001C3E7C91
:100770003E1C00183C7E3C18001C577D571C001C7A
:100780005E7F5E1C0000183C180000FFE7C3E7FF17
:1007900000001824180000FFE7DBE7FF0030483AAC
:1007A000060E00262979292600407F05050700400E
:1007B0007F05253F005A3CE73C5A007F3E1C1C0841
:1007C00000081C1C3E7F0014227F2214005F5F0083
:1007D0005F5F0006097F017F00006689956A0060FF
:1007E000606060600094A2FFA2940008047E040888
:1007F0000010207E20100008082A1C0800081C2A6F
:100800000808001E10101010000C1E0C1E0C0030EA
:10081000383E383000060E3E0E0600000000000094
:100820000000005F000000000700070000147F14B4
:100830007F1400242A7F2A120023130864620036E2
:100840004956205000000807030000001C22410008
:10085000000041221C00002A1C7F1C2A0008083EC0
:100860000808000080703000000808080808000030
:1008700000606000002010080402003E5149453E1F
:100880000000427F40000072494949460021414929
:100890004D33001814127F10002745454539003CA0
:1008A0004A49493100412111090700364949493671
:1008B00000464949291E0000001400000000403491
:1008C0000000000008142241001414141414000045
:1008D00041221408000201590906003E415D594EAB
:1008E000007C1211127C007F49494936003E41418B
:1008F0004122007F4141413E007F49494941007FFB
:1009000009090901003E41415173007F0808087F31
:100910000000417F4100002040413F01007F08145A
:100920002241007F40404040007F021C027F007F48
:100930000408107F003E4141413E007F090909063D
:10094000003E4151215E007F091929460026494990
:1009500049320003017F0103003F4040403F001F38
:100960002040201F003F4038403F006314081463BC
:10097000000304780403006159494D4300007F419E
:10098000414100020408102000004141417F000461
:1009900002010204004040404040000003070800FC
:1009A000002054547840007F2844443800384444A0
:1009B000442800384444287F003854545418000018
:1009C000087E0902001824241C78007F080404789B
:1009D0000000447D4000002040403D00007F102882
:1009E00044000000417F4000007C04780478007CD3
:1009F00008040478003844444438007C182424183F
:100A000000182424187C007C08040408004854546E
:100A100054240004043F4424003C4040207C001C3B
:100A20002040201C003C4030403C0044281028441A
:100A3000004C9090907C004464544C440000083674
:100A4000410000000077000000004136080000026D
:100A500001020402003C2623263C000000000000A6
:100A60000000000000000000000000C0E0F0F8F806
:100A70001800C0F0FCFEFFFFFFFFFFFFFF7E00003D
:100A80000000000000000080C0E0E0E0E0E0E0E006
:100A9000E0C0800000000080C0E0E0E0E0E0E0E0D6
:100AA000E0C080000000E0E0C0C0E0E0E0E0000066
:100AB000E0E0C0C0E0E0E0E0E0C0800000000080D6
:100AC000C0E0E0E0E0E0E0E0E0C080000000000026
:100AD000000000000000000000E0F0F0F0E0ECEEAC
:100AE000F7F37020007C7C7C7E007E7E7E7F7F7FA3
:100AF000000080C0E07E5B4F5BFEC00000C000DCF9
:100B0000D7DEDEDED7DC00C0000000000000000001
:100B100000000000000000000000000000000000D5
:100B200000000000F8FCFEFFE000FFFFFFFFFFFFFA
:100B300080FFFFFFFFFFFFFFFFFF1F070100000017
:100B4000000000000000FFFFFF8100000000000027
:100B500081C3C3C30000FFFFFF810000000000004D
:100B600081FFFFFF0000FFFFFF0100000000000009
:100B7000FFFFFF010000000001FFFFFF0000FFFF7B
:100B8000FF9D1C1C1C1C1C1C9DDFDFDF00000000E7
:100B90000000000000000000000F1F3F7F7F7F7FEC
:100BA0007F3F1E0C001F1F1F3F003F3F3F7F7F7F87
:100BB00000307B7F7830202030787F3B0003000FAF
:100BC0007F0F0F0F7F0F00030000000000000000E8
:100BD0000000000000000000000000000000000015
:100BE00000000000030F1F3F3F3F3F1F1F3F3F7F9D
:100BF0007F7F3F3F1F3F7F7F7F7F7C7878381C0F50
:100C000000000000000000010307070707070707AF
:100C10000703010000000001030707070707070794
:100C200007030100000007070700000000000000A4
:100C30000707070000000000000707070000000189
:100C40000307070707070707070301000000000065
:100C50000000000000000000000000000000000094
:100C60000000000000000000000000000000000084
:100C70000000000000000000000000000000000074
:100C80000000000000000000000000000000000064
:100C9000000000000000000000000000AF00AE00F7
:100CA00011241FBECFEFDAE0DEBFCDBF11E0A0E020
:100CB000B1E0ECEFFEE602C005900D92A23BB10759
:100CC000D9F726E0A2EBB1E001C01D92AD36B20724
:100CD000E1F70E946F060C947C370C940000ADE3A2
:100CE000B0E0E5E7F6E00C94DB3385B7806885BFBC
:100CF00085B7806885BF84B7877F84BF0FB6F894B7
:100D0000A8958091600088618093600010926000D7
:100D10000FBE90E080E80FB6F89480936100909346
:100D200061000FBE85E49DE19093B3018093B20111
:100D30000E94F42D0E94642D0E94C1160E94671724
:100D40008091E20084608093E20078948091330384
:100D50008823A1F01091E9001F709091EC00892F79
:100D6000817090FD80E8182B1092E9008091E800D6
:100D700083FD0E94A6291F701093E90082E084BDC4
:100D800093E095BD9AEF97BD80936E001092B401E9
:100D90001092B5011092B6011092B7010E94E91AA3
:100DA000811102C00E94351D88EC90E02091E30083
:100DB00027FD0EC0AFE3BCE91197F1F700C00000BA
:100DC0000197A1F70E94C1161092330380E001C081
:100DD00081E080936A0280936B028093000181110D
:100DE0000E9461328091000180910001882311F0FE
:100DF00090E001C094E09093C10184E0891B80934E
:100E0000C00105E411E0E9E4EE2EE1E0FE2EF80178
:100E100081918F018F3F11F00E948B1FE016F10628
:100E2000B1F709E411E07FE4E72E71E0F72ED80175
:100E30008D918D018F3F11F00E948B1FE016F106FE
:100E4000B1F788E0E9E1F2E0DF01282F1D922A9551
:100E5000E9F7E8EBF1E0DF011D928A95E9F780E020
:100E600090E00E943334863E9E4F21F40E94E91A9E
:100E7000811168C066EE7EEF80E090E00E946734EA
:100E800060E082E090E00E94493481E08093C201FA
:100E900061E083E090E00E94493460E074E184E026
:100EA00090E00E94673460E086E090E00E94493460
:100EB00060E087E090E00E94493440E050E0BA01F1
:100EC00088E090E00E945B3460E084E290E00E9461
:100ED000493460E087E190E00E94493460E08CE0B2
:100EE00090E00E94493460E08DE090E00E94493437
:100EF00019821A821B821C821D821E821F82188602
:100F000048E050E068E170E0CE0101960E9439347B
:100F100040E050E0BA0180E290E00E945B3480E063
:100F20000E94CA1A0E94351D40E050E0BA018FE0CD
:100F300090E00E945B3440E050E0BA0183E190E031
:100F40000E945B3482E090E00E942B348093C301C6
:100F500084E090E00E943334909373028093720295
:100F60000E94DA21EFEFF6E721E0E150F040204067
:100F7000E1F700C000000E94DA2180916B02882313
:100F800011F0E0E001C0E4E0F0E0E75EFD4F8081B9
:100F900081FF08C06FEF7FEF80E090E00E94673430
:100FA0000E94621983E090E00E942B340E94E426A4
:100FB00080916A02811102C082E001C080E08093CA
:100FC000100280E880933D030E94F1306BE070E0F6
:100FD0008BE791E00E94172D882309F443C080918C
:100FE000100265E070E081FD3AC086E791E00E9462
:100FF000172D8823B9F16DE070E084E691E00E943E
:10100000172D882379F10E94C419DC01CB01805A85
:101010009541AF4FBF4F8093670690936806A093AA
:101020006906B0936A06E0E4F3E080E092E0DF0155
:101030009C011D9221503040E1F7F0934705E09369
:1010400046058FEF9FEF90933F0380933E0381E02F
:1010500080936C0680936B061092110203C081E7A7
:1010600091E0C5CF80916A0281110CC00E94643268
:101070000E94C4196093CE017093CF018093D00178
:101080009093D10181E091E090936F0280936E0282
:10109000BE01655D7F4F79AF68AF22242394312C68
:1010A000CE0101962C0180913303853009F048C0B0
:1010B00050E4F52E00E112E180913303853009F010
:1010C0003BC080913303843029F10E94242D10927B
:1010D0007402A8E1B0E00FB6F894A895A093600060
:1010E0000FBEF092600083B7817F846083BF83B7B7
:1010F000816083BF7894889583B78E7F83BF0FB656
:10110000F894A895809160008861809360001092A7
:1011100060000FBE80913203882309F4CDCF0E9476
:10112000DA21E9E1F2E081918111C5C521E232E0E5
:101130002E173F07C1F7C0CF0E94E7260E94B41ABE
:101140000E94DA2144ECE42E41E0F42E69E172E0E1
:101150007BAF6AAFDB01F70191918D91892771E037
:10116000EC3CF70719F08823B9F306C0811104C0DD
:101170000E94A121D12C3CC080906A0239E1C32E8B
:1011800032E0D32E10E077247394D6019D906D0148
:10119000F701A080A92411F100E0BB24B3948B2DAA
:1011A0008A21B1F08820A1F00AAB1BAB0E94D019B4
:1011B0009DAB8CAB7EAA91E08B2D892109F490E048
:1011C0009FAB4AA95BA96CA97DA98EA90E94E72FB4
:1011D0000F5FBB0C063019F7D7019C921F5FBFEF62
:1011E000EB1AFB0A183089F60E94A21FDD24D39463
:1011F00080916A02882309F46AC080915F0290910D
:101200006002892B89F1609154027091550280919E
:101210005602909157020E94991900915002109124
:1012200051022091520230915302601771078207D8
:101230009307D0F080915F02909160020E94CD2FC1
:101240001092600210925F021092540210925502A6
:1012500010925602109257021092500210925102B0
:10126000109252021092530280916802909169028A
:10127000892B69F18091CC019091CD010E94B51923
:101280008C0187E0E8ADF9AD11928A95E9F7BE01CE
:10129000655D7F4F80916802909169020E94D82D10
:1012A00080179107A0F480916802909169029927B4
:1012B00024E0880F991F2A95E1F7FC01EF59FA4FB6
:1012C000208122FD04C0845A9A4F0E94211B8091E4
:1012D000D201811115C080916A02811111C0609103
:1012E000CE017091CF018091D0019091D1010E94E7
:1012F0009919693B7B408105910510F00E945719AF
:1013000080916C06882309F44AC180911202909161
:1013100013020E94B519C297B0F10E94D0199093A0
:1013200013028093120280E493E090934705809328
:10133000460580916A02882311F181EA91E00E94BA
:10134000AC28E091EB018E2F90E08F30910590F466
:10135000FC01EA5AFF4F0C94913489E991E008C0EE
:1013600083E991E005C08DE891E002C086E891E054
:101370000E94BA2883ED91E00E94C02804C089EA47
:1013800091E00E94AC2880913E0390913F03892B0D
:1013900031F480916B06882309F401C1E9C0809182
:1013A0006C068823B1F3809111028111F2CF0E9463
:1013B0003E2D20913E0330913F032115310549F325
:1013C00080E0682E712CEE24E394F12C082E02C0EC
:1013D000EE0CFF1C0A94E2F7A70142235323452B8E
:1013E00011F48F5FEECF90911002930105E0220F70
:1013F000331F0A95E1F790FF13C015E03695279546
:101400001A95E1F7220F220F220F20930E0110925E
:101410001101295F20930F0183E08093120111C015
:10142000220F232F221F330B31958295880F807650
:1014300080930E0120931101815E80930F01209310
:10144000120124E630E047E050E06CE071E088E70C
:101450000E942631892B09F09CCF8091100280FFD9
:1014600066C080E2E0EFF1E0DF011D928A95E9F7C6
:10147000A5E0660C771CAA95E1F7E3E5F1E0FDAF86
:10148000ECAF4FE451E0ACADBDAD8D91BDAFACAFB5
:10149000FA019191AF019301290F311DB901605CEF
:1014A0007C4F4B0190E080519E4FFC0107E09F0173
:1014B000281B390BBB24B39401C0BB0C2A95EAF757
:1014C000B401C12CDB011D91BD011B21202F2C1962
:1014D0002770A22E022E000C330BB12F01C0BB0FC0
:1014E000AA94EAF7AB2E319521953109277033275D
:1014F00001C016952A95EAF7A12A1081A12AA08297
:10150000C39428E0C212DECF015031960F3F79F626
:1015100067E571E08CAD9DAD6817790709F0B3CF31
:1015200004E610E020E230E040EF51E00DC0C301DE
:10153000F5E0880F991FFA95E1F7AC01405C5C4F2C
:1015400004E610E020E230E060E488E70E94BD316C
:10155000892B09F01ECFE094F09480913E03909186
:101560003F03E822F922F0923F03E0923E0311CFBD
:101570000E94C419009167061091680620916906BF
:1015800030916A06DC01CB01801B910BA20BB30BDF
:101590008F3F9F4FAF4FBF4710F40E94242DD110B3
:1015A0000E943E2D0E94B41A90911402891721F0D6
:1015B000809314020E94C41980913303843009F08F
:1015C00072CD83E08093E9008091E80082FF6BCDCB
:1015D0008091E80085FF22C00E94E01681111CC0A6
:1015E00000E210E09E012F5F3F4F790108C080911B
:1015F000F100D7018D937D010150110969F08091AF
:10160000E80085FDF4CF8091E8008B778093E800B7
:101610000E94E016882399F391E001C090E0809148
:10162000E8008B778093E800992309F43CCD009182
:1016300021021091220289810115110561F08E3F6E
:1016400009F032C38A81833008F4B3C185508330F6
:1016500008F02AC3AEC18B3009F492C110F5853071
:1016600009F46DC0B0F48230C1F130F4813009F07A
:1016700019C31A8289E096C2833009F453C08430BA
:1016800009F010C34C816B818A810E94B92C9D8323
:101690002FC3873009F406C308F004C30E94BB1CA3
:1016A00003C3803109F4B2C060F48D3009F454C032
:1016B00008F450C08E3009F453C08F3009F479C05B
:1016C000F1C2823109F4A8C008F4A3C0833109F43F
:1016D000CBC08E3F09F46DC1E5C28A81823009F426
:1016E00000C3833051F0813009F0DCC20E94C4197C
:1016F0009B838C837D836E83D7C280914E029091B1
:101700004F02892B09F4D0C2FE013396CE010B960D
:10171000AAADBBAD2D91BBAFAAAF2193E817F907D6
:10172000B9F7C2C28A81823009F0BCC26B817C8168
:101730008D819E810E9497340E94C51AB5C22D8169
:101740003E813227232732274C816B818A810E9478
:10175000922CAAC280E15EC081E08A8387EB22C21C
:101760000A811B81102701271027CC80D12CBDE1D5
:10177000CB16D10408F098C27201C801875B9D4F57
:101780009701241935092C153D0508F08DC2073B3A
:10179000E1E01E0730F40E942B34D70114968C939D
:1017A00002C0F70114820F5F1F4FFFEFEF1AFF0A0D
:1017B000E4CF80914E0290914F02892B09F474C2BC
:1017C0000A811B81102701271027EC80F12C2DE1C5
:1017D000E216F10408F068C26201C801875B9D4F00
:1017E0009601241935092E153F0508F05DC2073B07
:1017F00031E0130728F4D60114966C910E94493405
:101800000F5F1F4FBFEFCB1ADB0AE7CF0E94AB1C65
:101810004BC284E08A8348C20A811B8110270127BA
:101820001027CC80D12CEDE1CE16D10408F03CC2BB
:101830007201C80189969701241935092C153D05B7
:1018400008F032C20038F1E01F0730F40E942B3458
:10185000D70114968C9302C0F70114820F5F1F4FBB
:10186000FFEFEF1AFF0AE5CF0A811B81102701273E
:101870001027CC80D12C2DE1C216D10408F014C25F
:10188000480139E2830E911C003861E0160708F028
:101890000BC280E891E0801B910B8C159D0508F42C
:1018A00003C280914E0290914F02892B11F0720178
:1018B0005EC000FF0FC0C80188960E942B3490E0E4
:1018C000982F88272D81822B81159C4731F48FEF2B
:1018D0008D8303C0E12CF12C03C0EE24E394F12CA2
:1018E000C601800F911F560180FF1BC081E0A81A1E
:1018F000B10855E0652E712C6C0E7D1E6A0C7B1CA8
:10190000C4018C0D9D1D0E942B34D3012C9130E01D
:10191000322F2227282B21153C4719F48FEFF30192
:101920008083F201EE0DFF1D2FEFCF018419950981
:101930008A159B0508F0BBCF848190E0982F8827FB
:101940003581832B81159C4711F42483258332969E
:10195000ECCF003861E0160728F4D70114966C919B
:101960000E9449340F5F1F4FBFEFEB1AFB0AC801FB
:1019700089969701241935092C153D0550F394C11A
:1019800080914E0290914F02892B09F48DC140E263
:1019900050E0B20182E00E94F718EFEFF1EE24E090
:1019A000E150F0402040E1F700C000000E946219C1
:1019B0007BC1EA818E2F90E08E30910508F074C1D2
:1019C000FC01EB59FF4F0C94913488E0EDE3F1E01A
:1019D000DE01919601900D928A95E1F780E2D201A5
:1019E0001D928A95E9F786E0898388E0FE01B19629
:1019F000DE0115962DC184E8898381E08A831B82EC
:101A00001C8252C18C8190E0982F88272B81820FF5
:101A1000911D092E000CAA0BBB0B35E0880F991FF6
:101A2000AA1FBB1F3A95D1F7AC01BD01405E5F4FC5
:101A30006F4F7F4F481759076A077B0708F434C177
:101A40008438E1E09E07A105B10508F02DC14538B5
:101A5000F1E05F076105710520F044E851E060E0C6
:101A600070E0481B590BBC0167517E4FC2010E94B8
:101A700012341AC140E250E06FEF70E0C2010E94E0
:101A8000B43480914E0289830A831B821C821D829A
:101A900081E02EC1309222022092210282E390E066
:101AA00090931802809317020E94D0199093160207
:101AB00080931502F9C0012B89F11091190211FBD5
:101AC000882780F9182380911502909116020E94B0
:101AD000B51985369105E0F01123D1F00E94D01997
:101AE000909316028093150280911702909118022C
:101AF00001979093180280931702892B79F4109222
:101B000022021092210230924F0220924E0206C011
:101B100082E390E0909318028093170280914E0226
:101B20008983809121028A83809117023BC01092A1
:101B30004F0210924E02B8C040E250E06FEF70E0EA
:101B4000C2010E94B434B0C08B81823069F1E0F4EC
:101B5000882309F1813009F0A7C08C819AE0F92E21
:101B60008E010F5D1F4FF8012F2D11922A95E9F775
:101B7000B8010E947D2C8983F801DE011296019044
:101B80000D92FA94E1F790C0853009F444C0863094
:101B900009F463C089C080E2D2011D928A95E9F7F9
:101BA00088E089838B8380C01C818AE0FE013596A2
:101BB000DE01919601900D928A95E1F789A19AA193
:101BC0000E940C2E9AA389A38BA19CA10E940C2E8B
:101BD0009CA38BA38DA19EA10E940C2E9EA38DA3DE
:101BE0008FA198A50E940C2E98A78FA3183070F48F
:101BF0003AE0139FB001112467557E4F4AE050E050
:101C0000CE0181960E946D3480E001C08FEF898300
:101C10000E94F42D49C06C81CE0181962AE0DC013E
:101C20001D922A95E9F7683060F4BAE06B9FB00125
:101C3000112467507E4F4AE050E00E941B3480E040
:101C400001C08FEF89838AE0FE01B196DE01129612
:101C500001900D928A95E1F727C01C818AE0FE0170
:101C60003596DE01919601900D928A95E1F78BA150
:101C70009CA10E940C2E9CA38BA3183070F4EAE068
:101C80001E9FB001112467507E4F4AE050E0CE0104
:101C900081960E946D3480E001C08FEF89830E949D
:101CA000642D02C08FEF898340E250E0B20182E0F0
:101CB0000E94F718F8C909BD19BD09B400FEFDCF8F
:101CC0008091D8008F7D8093D8008091E000826061
:101CD0008093E0008091E00081FDFCCF0E94E72628
:101CE000EBC988E290E00E942B341B821C821D828B
:101CF0008E83DACFACE0B0E0E0E8FEE00C94DB33BA
:101D0000DC0114962C91222311F40C9475167C019D
:101D100061E00E94752F8C01F7018581882319F1FC
:101D200080916802909169020097E9F008171907FD
:101D3000D1F0992764E0880F991F6A95E1F7FC01BB
:101D4000EF59FA4F208124602083845A9A4FDC0196
:101D50000D931C930E94211B1092660261E0C70143
:101D60000E94752F8C01F7018581882309F4B7C083
:101D7000C80197578038910508F0FEC0003108F07F
:101D8000CBC48FEF93E00E942B348111C5C459E47A
:101D9000A52E52E0B52E002379F0A114F4E0BF0681
:101DA00009F4BAC4C5010E942B34811101C001504D
:101DB0002FEFA21AB20AEFCF19821A821B821C825D
:101DC000CC24CA9485010F5F1F4FC5010E942B349C
:101DD00089831A82882309F49FC4813009F07AC06C
:101DE000450132E0830E911CC8010E942B34D82E8D
:101DF0008A83882309F490C48FEF8D0D833050F4CB
:101E00000E5F1F4FC4010E942B348B83811162C06F
:101E10005801D8CF8BEF8D0D833070F5350143E03D
:101E2000640E711CC4010E942B348B83811102C08B
:101E30008301EECF85010C5F1F4FC3010E942B343D
:101E40008C83882329F32B813C8121305FEF350778
:101E500018F0922F80E001C0C901A6E0DA1631F037
:101E6000B7E0DB1631F00E94C92ED2CF0E94A42E1B
:101E7000CFCF0E941C2ECCCFE4E0DE1611F08401FF
:101E8000C7CFC4010E942B34D82E85010C5F1F4F91
:101E9000C50103960E942B34DD2009F43DC488233C
:101EA00009F43AC4282F30E021503109C29EA00124
:101EB000C39E500D11248D2D90E00197840F951F26
:101EC000019708F4A5CFAFE9BFE01197F1F700C083
:101ED0000000F6CFCE0101960E94D82899CF680164
:101EE000E7E5DE1AFFEFCF16D10411F008F03EC08F
:101EF00062E575E08C2D0E947D2C892BB9F5C60119
:101F000044E0880F991F4A95E1F7FC01E45AFA4F23
:101F100022812130C9F42091520530915305232BA1
:101F200029F12091540530915505232BF9F020918A
:101F3000560530915705232BC9F42091580530914F
:101F40005905232B49F012C0223081F42091560507
:101F500030915705232B51F0FC01EF59FA4F2081A6
:101F60002E7F2083845A9A4F0E94211BD7011596F9
:101F70008C91882309F465C0F70181818093EF017A
:101F800080818093EE0180E280930B011093ED013C
:101F90000093EC01980130522115F0E23F0730F434
:101FA000D70116968C91807F79F422C0C801905495
:101FB0008115904120F4F7018681807F29F4C801C2
:101FC0009A9581159F4118F4F801FF2707C0C801B1
:101FD000805A9245809708F477C3F801ED33F105F4
:101FE00008F072C3E359FC4FE491E0930B016CC31A
:101FF000C80199278C33910528F4FC01E359FC4F63
:10200000208101C020E21F922F939F938F93D701CD
:102010008C911F928F9311968C911F928F9387E5CD
:1020200091E09F938F931F9288E18F9383ED91E0CE
:102030009F938F930E94BB340FB6F894DEBF0FBE00
:10204000CDBFD70115962C902220D1F00E35BCE7DC
:102050001B0761F00F35ECE71E0761F00D35FCE75B
:102060001F0771F480911301811104C081E08093F6
:10207000130152C31092130180E00E941E1C4CC336
:1020800080911301811108C0C80197558F3F9105B8
:1020900009F008F475C1E2C1480120EE821A9108E6
:1020A0003090A40280912303382A80916702382A55
:1020B00038E08316910480F498012770332781E07B
:1020C00090E001C0880F2A95EAF7222011F0382A03
:1020D00018C08095382215C0222009F411C1109330
:1020E0002402009323020E94C41960935802709343
:1020F000590280935A0290935B02109260021092F0
:102100005F02D7018D919C910E940F2621E030E063
:10211000F90102C0EE0FFF1F8A95E2F7FC87EB87FB
:10212000209161023091620238872F83409123020F
:10213000509124025A8749871D82422C512C5D817F
:10214000E52FF0E0EE0FFF1FE352FA4FC080D18081
:10215000C114D10409F4EBC0311005C0D6011296A8
:102160008C918111C9C0F601838190E02B853C855B
:1021700082239323892B09F4BFC08085982F977001
:1021800009F487E038E08316910440F4222019F026
:1021900081FD09C0B1C082FD06C0AEC0222009F495
:1021A000ABC080FFA9C0D601AD90BC900A151B053D
:1021B00019F4222009F4A0C0EF81F885CE16DF06BD
:1021C00009F49AC0D6011D96ED91FC911E973097A7
:1021D00021F08081882309F48FC0632DC6010E94FD
:1021E0008B1C882309F488C00A151B0511F43201E1
:1021F00002C0612C712CB62DB170BE8381E0A11498
:10220000B10441F0B11106C0E985FA85AE16BF06EA
:1022100009F080E080FF70C080E00E941E1CD09218
:102220006202C092610281E080935E02D60115963F
:102230008C9180935C02BE81B11110C0AB2871F00B
:10224000F601808191819C0124503109213A3105A8
:1022500018F40E94051A02C00E942B27D601169678
:10226000AD90BC901797C5019A9581159F4110F4C8
:10227000E0EEBE2255245394C50101978F339E474B
:1022800008F0512CD6011996ED91FC911A973097D0
:1022900039F01B966D917C911C9781E0099558222D
:1022A000552019F1F601868197810E94A02F809315
:1022B0005D02C501F8E08F16910418F40E94D81B46
:1022C00014C00497813A910520F48A2D0E94331A94
:1022D0000EC00E944F218FE39CE90197F1F700C0E7
:1022E00000008A2D0E94552702C00E944F2191E0D4
:1022F000692660FEE6C1C8CEAD81AF5FAD831FCF5A
:1023000080912302909124020817190781F41092FA
:102310002402109223021092580210925902109235
:102320005A0210925B021092600210925F0280913A
:10233000610290916202009709F4A6CEB8E08B1674
:10234000910438F4632D0E948B1C81119DCE81E095
:1023500014C0FC01208131810217130729F42110D8
:1023600006C010925E0208C0222009F48DCEDC0166
:1023700018968C9185FD88CE80E00E941E1C84CE2C
:102380005801BB24C50124E0880F991F2A95E1F765
:10239000FC01E45AFA4F6F01D70115962C9115975D
:1023A000FC01EF59FA4F5F01808120FB80F98083A7
:1023B00015968C918823A1F10E94D0199093CD019C
:1023C0008093CC01D60112968C9112978F5F129652
:1023D0008C9312979091660280916702892B1396D5
:1023E0008C9313978091A40214968C93149716964D
:1023F0004D915C9117971E966D917C911F97C60128
:102400000E94021BF501808181FF03C090E080E003
:1024100002C0902F812F90936802809369021EC0A2
:10242000D6011C964D915C911D971E966D917C91E5
:102430001F97C6010E94021BF501808181FF0EC01B
:10244000C6010E94081B80916802909169020817DA
:10245000190721F410926902109268024801A12C18
:10246000B12CF801E851FC47E730F10588F5ED584B
:10247000FF4F0C94913406E221EE41EE6AE17CE7D5
:1024800023C007E225EE45EE6BE17CE71DC006E2C6
:1024900021EE40EE68E17CE717C007E225EE44EE4E
:1024A00069E17CE711C006E221EE42EE6CE17CE7D7
:1024B0000BC007E225EE46EE6DE17CE705C008E2C1
:1024C00021E045EE6EE17CE7C7010E944B1B24C171
:1024D000D70115968C91882309F433C110926502B7
:1024E000C8019057839708F0DBC084E090E00E9419
:1024F00033349093730280937202F801E150F047F5
:10250000E232F10520F4E658FF4F0C9491348091AB
:1025100072028160ACC0809173028860B4C0809107
:1025200072028260A4C08091720220C08091720207
:1025300088609DC0809173021EC08091730282608A
:10254000A2C080917202806192C08091720280620A
:102550008EC08091720280648AC00E94E7268091BA
:102560007202806884C080917202886084607FC03B
:10257000809173028260816086C0809172028E7F3A
:1025800076C080917302877F7EC0809172028D7FBA
:102590006EC08091720220C080917202877F67C0F6
:1025A000809173021EC0809173028D7F6CC08091F8
:1025B00072028F7E5CC0809172028F7D58C08091C4
:1025C00072028F7B54C00E94E726809172028F773F
:1025D0004EC080917202877F8B7F49C080917302C9
:1025E0008D7F8E7F50C08091720282FB222720F95E
:1025F00091E0922790FB82F990FB83F938C080919B
:102600007302982F909591708E7F892B90FB81F9A2
:102610003AC08091720286FB222720F991E092272E
:1026200090FB86F924C00E94E7268091720287FB06
:10263000222720F991E0922790FB87F918C061E0EA
:1026400001C060E08EE090E00E9449341EC080919D
:10265000720284FB222720F991E0922790FB84F9F3
:1026600006C080917202982F909590FB80F980931C
:1026700072020BC08091730283FB222720F991E044
:10268000922790FB83F9809373026091720270919C
:10269000730284E090E00E9467340E94E7263CC009
:1026A0000631BCE71B07B1F4809167028A7A91E09A
:1026B00009F490E090932502811141C089E20E94C3
:1026C000331A0E944F2128C02115304308F490CCC2
:1026D000C80190CC0737FCE71F0709F4F5C208379B
:1026E0002CE7120709F4F4C20330BCE71B0709F416
:1026F000D5C2B8F50115FCE71F0709F0BAC20E9460
:10270000E7268FEF94E3ACE081509040A040E1F7E2
:1027100000C000000E94621980912603877009F4AE
:10272000E4C2D70115968C91882309F4DEC280910A
:10273000730282FFDAC282E00E94AA26D6C285E333
:10274000BECF0631ECE71E0709F489C20737ECE774
:102750001E0709F4BBC20837FCE71F0709F4BCC217
:1027600013C00B353CE7130709F4ACC20C354CE73A
:10277000140709F08DC28091730282FB882780F9CB
:1027800091E089270E94C126D70115968C91159753
:102790000D911C91882349F0C8010E940224D82E73
:1027A000682FC8010E94432604C0C8010E940F265A
:1027B000D82EB8018D2D0E94FC1F0E9419208C017B
:1027C000A82EF701C580D680D2949FE0D9228091AF
:1027D0002603877001F1CC20F1F0812F807F8034B7
:1027E00069F080E2800F8830B0F0812F807E8032E7
:1027F00029F4F1E0F01778F4DD2069F0809173029C
:1028000082FF09C082E00E94AA2680912603877079
:10281000BB24B3948111B12C912E92948FE0982215
:10282000892D90E08C30910508F0F4C1FC01E4564C
:10283000FF4F0C949134812F807F1F70882311F0FB
:102840001295107FCC20B9F0112309F4D0C180E299
:10285000800F883010F0A11006C090916702192BEC
:102860001093670205C090916602192B10936602BF
:102870000E944F21BCC1802F0E942B27112309F4F5
:10288000C9C1005E812F083068F1AA2059F10E9469
:1028900041212AC0812F807F1F70803211F0129554
:1028A000107FAA2029F021E0A21609F462C06DC0B1
:1028B0008091730282FD1BC0CC2069F0112339F096
:1028C00090916702192B109367020E944F2180E0BC
:1028D0000E9455279FC180E00E942B27112309F4F5
:1028E00099C1812F0E9448210E944F2193C1CC2081
:1028F00061F1DD2009F44DC031E0D31212C08091A6
:10290000A4028123181709F485C10E94D01990935D
:10291000A3028093A2029091A402192B1093A40207
:1029200079C145E0D41276C1812F0E942127812FE1
:102930000E94C52190912303812F8923181709F440
:1029400069C1192B1093230365C1DD2041F051E0CB
:10295000D51260C180916702812309F45BC1812F88
:102960000E941A27812F0E94C521812F0E948B234C
:1029700051C1CC2029F085E08D1508F44BC109C068
:1029800094E09D1508F446C115C0CC2031F0D1105B
:102990002EC1812F0E9421273DC1DD2059F009332E
:1029A00009F035C1AFEFB7EEE3E0A150B040E04031
:1029B000E1F72BC1812F0E941A272CC1812F869508
:1029C0008695837019F0813059F024C1CC2019F01C
:1029D000C801937002C080E090E00E948F1A20C16D
:1029E000CC2019F0C801937002C080E090E00E94F2
:1029F0006A1A16C1812F8370A9F5C1100FC1402F2B
:102A0000429546954770440F440F802F8F7090E099
:102A10009C01042E01C0220F0A94EAF704FF08C0AB
:102A20008FE090E001C0880F4A95EAF7809501C0D9
:102A300080E0169516951370123069F088F4909125
:102A4000C201113019F0822B892302C0922B892BED
:102A50000E94E426E3C0822B9091C2018927F8CF1F
:102A6000822BF6CFCC2019F0812F817001C0869582
:102A7000882309F4D3C0402F429546954770440FF0
:102A8000440F802F8F7090E09C01042E01C0220F14
:102A90000A94EAF704FF08C08FE090E001C0880FB5
:102AA0004A95EAF7809501C080E016951695137057
:102AB000123059F078F49091EB01113019F0822B1B
:102AC000892309C0922B892B06C0822B9091EB01A0
:102AD000892701C0822B0E947826A0C01F70CC20BD
:102AE00039F0812F0E94D826802F0E94212796C07E
:102AF000802F0E941A27812F0E949D268FC0802F31
:102B0000F2EFAF1691F1FA1538F020EFA21659F056
:102B100031EFA31619F166C043EFA41669F154EF23
:102B2000A516C1F05FC0CC2081F084E08D1508F4BB
:102B300071C01F7181E090E0012E01C0880F0A94DE
:102B4000EAF79091EB01892722C095E09D1508F4E2
:102B500061C0EFCF8091730282FD1CC0CC2039F0A0
:102B6000812F8F710E94D82655C0CC20C9F3812FA8
:102B70008F710E949D264EC0CC2041F01F7181E0D4
:102B8000012E01C0880F0A94EAF701C080E00E947C
:102B9000782640C0CC20B9F080912603877084301D
:102BA00039F40E948423812F8F710E949D2655C085
:102BB000A4E0AD1508F451C01F71812F0E94D826E2
:102BC00063E0812F08C0B4E0BD1540F40E94842367
:102BD00064E0812F8F710E9416283FC081E00E941F
:102BE000AA263BC0CC2029F0DD2009F4B9CF802FE4
:102BF0006FCEDD2009F4BBCF893349F4EFEFF7EE58
:102C000023E0E150F0402040E1F700C00000802FB9
:102C10000E942B2788EF890D843010F40E94B41A8B
:102C2000BB20B1F08091260380FD12C0D70115961C
:102C30001C928695869586950E94D826C7010E948B
:102C40007A0E809126038695869586950E949D260C
:102C500060E0C7010E94752F48C0B12CDFCF809182
:102C60002502811104C089E20E94051A2ACD85E35C
:102C7000FBCF01302CE7120709F086CD0E94E72632
:102C8000BFEFE4E3FCE0B150E040F040E1F715C0F5
:102C90000A351C4709F078CD81E074CD6FEF7FEFE6
:102CA00080E090E00E9467340E94E7262FEF34E333
:102CB0004CE0215030404040E1F700C000000E944D
:102CC00057192ACD80E05ECD81E003C081E005C0C8
:102CD00082E00E94D82603C082E00E949D2643E045
:102CE00062E081E00E947B2617CD2C96E2E10C94F5
:102CF000F73308958091280308951F920F920FB61D
:102D00000F9211242F933F934F935F936F937F9371
:102D10008F939F93AF93BF93CF93DF93EF93FF93E3
:102D2000C091E900CF708091EC00D82FD17080FD68
:102D3000D0E81092E9008091F000877F8093F00046
:102D400078940E94A6291092E9008091F000886092
:102D50008093F000CD2BCF70C093E900FF91EF91ED
:102D6000DF91CF91BF91AF919F918F917F916F91A3
:102D70005F914F913F912F910F900FBE0F901F9039
:102D80001895E8EDF0E080818E7F80831092E2005C
:102D90001092DA001092E100A0EEB0E08C91816018
:102DA0008C9380818F77808319BCA7EDB0E08C91E4
:102DB0008E7F8C9380818F7E80831092790208951C
:102DC0002091E4003091E50095E64091EC00842FDD
:102DD000817040FF23C08091E80080FD1DC080917C
:102DE0003303882399F0853099F08091EB0085FDBD
:102DF00011C04091E4005091E5002417350729F3F4
:102E0000915011F09A01E1CF84E0089582E0089595
:102E100083E0089581E0089580E008954091E800FE
:102E200042FFDDCF08958091350387FF11C0809167
:102E3000E80082FD05C0809133038111F8CF11C0F5
:102E40008091E8008B770BC080913303882349F091
:102E50008091E80080FFF8CF8091E8008E77809322
:102E6000E8000895982F973068F59093E900981737
:102E700039F07091EC002091ED005091F00003C00A
:102E8000242F762F50E021FD02C09F5FECCF3091C0
:102E9000EB003E7F3093EB003091ED003D7F3093AF
:102EA000ED003091EB0031603093EB007093EC005B
:102EB0002093ED005093F0002091EE0027FDE5CF28
:102EC00080E008958F708093E90081E00895A0E08C
:102ED000B0E0EDE6F7E10C94E533C8EDD0E0888191
:102EE0008F7E8883E7EDF0E080818160808384E0DD
:102EF00082BF81E08093790288818E7F888302EE91
:102F000010E0F80110821092DA0081EEC82ED12C68
:102F1000F601108288818F77888388818068888312
:102F200088818F7D888319BC1092330310923403FB
:102F3000109232031092310390EEE92EF12CF7013A
:102F400080818B7F808388818160888342E060E01C
:102F500080E00E943217F60180818E7F8083F80125
:102F6000808181608083808188608083F701808197
:102F70008E7F8083888180618883CDB7DEB7E8E06B
:102F80000C9401341F920F920FB60F9211242F93BD
:102F90003F934F935F936F937F938F939F93AF93E1
:102FA000BF93EF93FF938091E10082FF09C080916E
:102FB000E20082FF05C08091E1008B7F8093E100F9
:102FC0008091DA0080FF2AC08091D80080FF26C05F
:102FD0008091DA008E7F8093DA008091D90080FFA3
:102FE00018C080E189BD82E189BD09B400FEFDCF32
:102FF00081E0809333038091790281110FC00E9498
:10300000C1160E9467178091E20084608093E200FD
:1030100005C019BC10923303109279028091E1002F
:1030200080FF17C08091E20080FF13C08091E20012
:103030008E7F8093E2008091E20080618093E200C5
:103040008091D80080628093D80019BC85E080937D
:1030500033038091E10084FF30C08091E20084FF5F
:103060002CC080E189BD82E189BD09B400FEFDCF9D
:103070008091D8008F7D8093D8008091E1008F7E71
:103080008093E1008091E2008F7E8093E200809146
:10309000E20081608093E20080913403882311F084
:1030A00084E007C08091E30087FD02C081E001C099
:1030B00083E080933303809133038091E10083FFA9
:1030C00027C08091E20083FF23C08091E100877FC9
:1030D0008093E10082E08093330310923403809167
:1030E000E1008E7F8093E1008091E2008E7F8093EB
:1030F000E2008091E20080618093E20042E060E0C3
:1031000080E00E9432178091F00088608093F00088
:10311000FF91EF91BF91AF919F918F917F916F91AF
:103120005F914F913F912F910F900FBE0F901F9085
:10313000189520913B0330913C032617370748F040
:103140006115710539F42091E8002E772093E8008D
:1031500001C0B901FC0120E06115710579F1809190
:1031600033038823F1F18530F1F18091E80083FD8C
:103170003CC08091E80082FD2EC08091E80080FF75
:10318000EBCF2091F3008091F20090E0922B61153B
:10319000710551F08830910538F421912093F100A8
:1031A000615071090196F3CF21E0089709F020E002
:1031B0008091E8008E778093E800CECF2111CFCFA9
:1031C0000AC080913303882361F0853061F08091DB
:1031D000E80083FD0AC08091E80082FFF2CF80E022
:1031E000089582E0089583E0089581E008950F93A3
:1031F0001F93CF93DF938B01EA01909133039430B7
:1032000079F58F708093E9008FEF9091E8008150FD
:1032100095FD06C095ED9A95F1F700008111F5CF67
:103220008091E80085FF1CC00E94E016882361F0B1
:103230008091E8008E778093E80012C0F8018191B8
:103240008F018093F1002197209791F38091E800FE
:1032500085FDF4CF8091E8008E778093E800E4CF7D
:10326000DF91CF911F910F91089543E050E0BC0191
:1032700084E00E94F718089540E250E0BC0184E029
:103280000E94F7180895CF93DF93EC0148E050E0D7
:10329000BC0181E00E94F71888E0FE01A9E2B3E0DA
:1032A00001900D928A95E1F7DF91CF9108959AE010
:1032B00088E10FB6F894A895809360000FBE9093B4
:1032C0006000FFCF87E797E790930108809300089D
:1032D0009AE088E10FB6F894A895809360000FBE3D
:1032E00090936000FFCF78941F920F920FB60F92C9
:1032F00011248F939F93AF93BF9380917502909108
:103300007602A0917702B09178020196A11DB11DBD
:103310008093750290937602A0937702B09378021F
:10332000BF91AF919F918F910F900FBE0F901F9003
:103330001895CF92DF92EF92FF922FB7F894C0903A
:103340007502D0907602E0907702F09078022FBF5D
:10335000A7019601261B370B480B590BCA01B9016F
:10336000FF90EF90DF90CF9008959C014FB7F894B5
:103370008091750290917602A0917702B0917802C7
:103380004FBF821B930B08952FB7F894609175027D
:103390007091760280917702909178022FBF089504
:1033A0002FB7F8948091750290917602A0917702E0
:1033B000B09178022FBF08951F920F920FB60F920F
:1033C00011248F939F93AF93BF93809174028111C7
:1033D00013C08091750290917602A0917702B0910E
:1033E00078024196A11DB11D8093750290937602DB
:1033F000A0937702B0937802BF91AF919F918F9184
:103400000F900FBE0F901F90189590913C0199233B
:1034100021F09091720297FD03C0E6E2F2E01DC038
:10342000E82FE695E695E695EE31E0F4F0E0E25D12
:10343000FD4F877021E030E0A90102C0440F551F05
:103440008A95E2F7CA018095928189238283089543
:10345000319652E0EC32F50729F092818913F8CFCA
:103460001282F6CF089590913C019923D1F090916A
:10347000720297FF16C0E82FE695E695E695EE31C5
:1034800040F5F0E0E25DFD4F877021E030E0A901FA
:1034900002C0440F551F8A95E2F7CA019281892B19
:1034A00016C0A8E2B2E0EFEF90E02D91821789F00C
:1034B000EF3F19F4211101C0E92F9F5F9630A9F762
:1034C000EF3F39F00E2E000CFF0BEA5DFD4F8283BB
:1034D00008950895A3E0B0E0E0E7FAE10C94EB333F
:1034E000209170023091710228173907A1F0909352
:1034F000710280937002E0916E02F0916F0230973A
:1035000051F024E029839B838A830084F185E02D98
:10351000CE01019609952396E2E00C940734A3E0CE
:10352000B0E0E5E9FAE10C94EB3320916C023091C4
:103530006D0228173907A1F090936D0280936C02F9
:10354000E0916E02F0916F02309751F023E02983F1
:103550009B838A830084F185E02DCE010196099535
:103560002396E2E00C94073480916A02882359F094
:10357000E0916E02F0916F02309729F00190F08196
:10358000E02D0995089580E0089588E290E00E947A
:1035900049340895CF93C82F811102C06FEF01C045
:1035A00066EE85E290E00E944934C11102C06FEFDF
:1035B00001C060EA86E290E00E944934C11102C075
:1035C0006FEF01C068E087E290E00E944934CF913C
:1035D000089585E290E00E942B34863E81F486E2D5
:1035E00090E00E942B34803A51F487E290E00E94F0
:1035F0002B3491E0883009F090E0892F01C080E001
:10360000817008954115510511F0FA010995089549
:10361000CF93DF93EC014A855B856E857F850E94A1
:10362000021B8B810E9441218C810E9448210E94B3
:103630004F2186E0FE0111928A95E9F7DF91CF9143
:103640000895CF93DF93EC018D8181FD17C08260D7
:103650008D83909166028B81892B80936602909175
:1036600067028C81892B809367020E944F214885D5
:1036700059856E857F85CE010E94021B10926902DA
:10368000109268028D8180FD03C0CE010E94081B4C
:10369000DF91CF910895A0E0B0E0E1E5FBE10C946B
:1036A000E3337C015B01C42FD22FFC018581882389
:1036B000B1F0409365020E94D01990936402809308
:1036C000630280E28C0F883008F06DC0C77081E023
:1036D00001C0880FCA95EAF70E94212764C0809133
:1036E0006502481342C080916302909164020E9477
:1036F000B5196C01B701C5010E94D82DC816D906AD
:10370000A0F510E21D0FCD17E9F080E28C0F883094
:1037100040F4C77081E001C0880FCA95EAF70E94A3
:103720001A27183078F581E09D2F977001C0880F17
:103730009A95EAF70E942127093351F560E570E078
:1037400089E329C0093319F460E570E002C060E044
:1037500070E0802F0E94C027183028F5D77081E0D4
:1037600001C0880FDA95EAF70AC080E28C0F883032
:10377000D0F4C77081E001C0880FCA95EAF70E94B3
:103780001A2711C0093351F460E570E089E309C0DC
:1037900060E070E0802F0E94C027E0CF60E070E022
:1037A000802F0E94C027CDB7DEB7EAE00C94FF332C
:1037B000CF92DF92EF92FF92CF93DF93EC01C09014
:1037C0005802D0905902E0905A02F0905B02C70173
:1037D000B6010E949919643F71408105910568F412
:1037E000C0925402D0925502E0925602F0925702D3
:1037F00084EF91E0A0E0B0E00EC00E94C419609395
:10380000540270935502809356029093570282E3BC
:1038100090E0A0E0B0E08093500290935102A0931A
:103820005202B0935302D0936002C0935F02DF91C3
:10383000CF91FF90EF90DF90CF900895FF920F937C
:103840001F93CF93DF9300916102109162020115E3
:10385000110509F45AC01092600210925F02109292
:103860005C0210925D02D80116962D913C9117973B
:10387000A9015A9541155F4108F4307EC22FD1E06D
:10388000211101C0D0E0F82ED8011996ED91FC91DC
:103890001A97309739F01B966D917C911C9780E0B8
:1038A0000995D823DD2369F08CEF8C0F813A20F441
:1038B0008C2F0E94051A05C00E944F218C2F0E9458
:1038C0002B27E0916102F091620240815181FF203B
:1038D00071F0808584FD0BC080915E02882339F0F1
:1038E00091E09A01215031092F333E4708F090E0D2
:1038F00090FF03C0CA010E94D81B0E944F21109262
:1039000062021092610210925E02C801CDB7DEB76A
:10391000E5E00C940434FC0184818623C1F4928197
:103920009923B9F08085692383FF04C081E0611188
:1039300011C00DC0892F8F7092959F70982B862F84
:103940008F7062956F70682B81E0961719F080E098
:10395000089581E00895CF93DF93C9E4D2E060E059
:10396000CE010E9449342196C11584E0D807B9F7E9
:10397000DF91CF910895A4E1B0E0E1ECFCE10C947B
:10398000DF33A0904E02B0904F0281E090E0909320
:103990004F0280934E02612CC12CD12C712CE12C52
:1039A000F12C00E010E046018E0C9F1CF801EE0F98
:1039B000FF1FE80DF91DE755FC4F25913491402F6D
:1039C000672D862D0E94922C0F5F1F4F0630110528
:1039D00069F78CE0E80EF11C7394E8E07E12E1CF09
:1039E000F0E6CF0ED11C639484E06812D7CF1A8220
:1039F00019821C821B821E821D8218861F8284EB04
:103A000090E09A87898709EA11E04AE050E0B8011E
:103A1000CE0101960E946D34065F1F4F093FE1E021
:103A20001E0799F77E01FBE0EF0EF11C8AE0F7011B
:103A300011928A95E9F78FEF9FEF988B8F8787E038
:103A40008C8B4AE050E0B801C7010E946D34065FDC
:103A50001F4F0934F2E01F07A1F7B0924F02A09266
:103A60004E026496EEE00C94FB3380E00E94CA1A8A
:103A700060E070E0CB010E94C51A0E94BB1C0E944E
:103A8000AB1C81E00E94CA1A089580E008959091CD
:103A9000720292FF10C041E0282F2471243009F0F7
:103AA00040E031E0282F2871283009F030E043173A
:103AB00011F02CE0822793FF10C041E0282F2471E1
:103AC000243109F040E031E0282F2871283109F035
:103AD00030E0431711F02CE082273091730230FF61
:103AE00010C051E0282F2171213009F050E041E051
:103AF000282F2871283009F040E0541711F029E0F0
:103B0000822731FF10C041E0282F2171213109F0B7
:103B100040E031E0282F2871283109F030E04317C8
:103B200011F029E0822794FD877E0895823891055F
:103B300069F1B0F48133910509F475C048F4893214
:103B4000910509F467C08A32910509F471C008959E
:103B50008533910509F459C089339105B9F0089569
:103B6000833E910589F138F4803E9105D1F0823E83
:103B7000910529F10895863E9105C9F1873E910589
:103B8000D9F1843E910509F06CC027C020917202E2
:103B900020FD57C021FD55C02091730223FD5BC05D
:103BA00008958091720280FD48C08091730280FF69
:103BB00048C08091720284FD46C083EE51C080915E
:103BC000720282FF3CC0F5CF8091720282FD37C045
:103BD0008091730280FD35C0ECCF8091730281FF2C
:103BE00036C08091720284FD2EC087EE39C080916C
:103BF000720283FF2AC0F5CF8091720283FD25C037
:103C00008091730281FD23C0ECCF8091720285FD0B
:103C100022C01FC08091720285FD1BC0809173027B
:103C200083FF19C00AC08091720286FD16C017C0BA
:103C30008091720286FD13C010C089E311C082EE2C
:103C40000FC080EE0DC080E00BC086EE09C084EE90
:103C500007C085E305C089E203C08AE201C081E3B1
:103C600090E00895A0E0B0E0E8E3FEE10C94E333D7
:103C70007C015B016A018091CF028A3018F001E07B
:103C800010E002C00AE010E0C1E0D0E0B501C701D9
:103C9000F6010995811115C021960C171D0794F0A6
:103CA000CC9F9001CD9F300D300D112480E090E02D
:103CB00045E34A95F1F70000019682179307C1F793
:103CC000E5CF81E0CDB7DEB7EAE00C94FF33A0E0AA
:103CD000B0E0EDE6FEE10C94E6337901C82F880FE1
:103CE000DD0B41155105A9F0FE0193E0EE0FFF1F1A
:103CF0009A95E1F7EC5EFE4F818192818F549D4F42
:103D0000208130E04217530708F49A01A9010E946C
:103D1000AB34CE010E944C33D82E8823D1F001154C
:103D20001105B9F083E0CC0FDD1F8A95E1F7FE01A4
:103D3000EC5EFE4F438150E00417150708F4A8011C
:103D4000CC5EDE4F6C817D816F547D4FC7010E9438
:103D5000AB348D2DCDB7DEB7E7E00C940234A1E093
:103D6000B0E0E5EBFEE10C94E93381E089838091DA
:103D7000CF028A3010F01092D2018091D2018111CD
:103D80000FC000E010E020E030E041E050E0BE0174
:103D90006F5F7F4F84E00E94671E89838093D2010A
:103DA00089812196E4E00C9405340F931F93CF93FF
:103DB000DF93EC0144E050E066EB72E00E949E3439
:103DC0008C016091C7027091C8028091C9029091E4
:103DD000CA020E949919643671058105910510F493
:103DE000012BC1F000E010E020E030E044E050E0C2
:103DF000BE0182E00E94671EC82F882361F00E94E6
:103E0000C4196093C7027093C8028093C90290934B
:103E1000CA0201C0C1E08C2FDF91CF911F910F9199
:103E20000895A5E0B0E0E7E1FFE10C94E7337B0102
:103E300001E010E09E012B5F3F4F40E050E060E06A
:103E400070E080E00E94671E182F8823C1F1609106
:103E5000C3027091C4028091C5029091C6020E9473
:103E60009919643671058105910538F482EB92E069
:103E70000E948F299D81891711F104E010E09E01B5
:103E80002F5F3F4F40E050E060E070E081E00E9433
:103E9000671E182F82EB92E00E948F2991E02D81FE
:103EA000281390E0192329F10E94C4196093C302DA
:103EB0007093C4028093C5029093C6020CC0809197
:103EC000B2029091B302A091B402B091B50289837D
:103ED0009A83AB83BC83112361F089819A81AB8182
:103EE000BC818093BF029093C002A093C102B093A3
:103EF000C2028091BF029091C002A091C102B09114
:103F0000C202F70180839183A283B383812F259618
:103F1000E6E00C940334F894E82FE295EF70F0E0BB
:103F200031A1282F2F7081E090E001C0880F2A95E1
:103F3000EAF7982F9095932391A392A1892B82A3BE
:103F4000789408950F931F9380916A02882319F043
:103F50000E94C4190EC00E94C4190091B4011091AE
:103F6000B5012091B6013091B701600F711F821F1A
:103F7000931F1F910F910895A4E0B0E0E2ECFFE1E0
:103F80000C94E9336091CB027091CC028091CD0208
:103F90009091CE020E9499196436710581059105B0
:103FA00028F10E94A21FDC01CB010296A11DB11DC8
:103FB00089839A83AB83BC8300E010E020E030E08B
:103FC00044E050E0BE016F5F7F4F83E00E94671EB8
:103FD000182F882361F00E94C4196093CB0270935C
:103FE000CC028093CD029093CE0201C011E0812FCC
:103FF0002496E4E00C9405342091210230912202B1
:10400000232BA1F4703F39F4603F81F4809148057F
:10401000909149050895783048F4663038F484303A
:1040200028F4462F672F0E94B92C089580E090E075
:1040300008951F93CF93DF930E94961DEC01C11545
:1040400080E5D807E8F5C11590E4D90708F0A8C0C5
:10405000C03ED10530F5CD3CD10508F094C0C83A3A
:10406000D10578F4C53AD10508F083C0C130D10537
:1040700009F47CC008F4F2C0C430D10508F0F1C0E6
:10408000EDC0C33CD10508F0E9C0C85AD0E0CC0F60
:10409000DD1FC559DE4F0990D881C02DCE01946433
:1040A000E1C0C11580E2D80708F0CBC0C11591E08E
:1040B000D90708F06BC0C83ED10508F4D2C0CEC005
:1040C000C03682E5D80728F5C03492E5D90708F054
:1040D00079C0C03282E5D80708F06CC0C11592E5FE
:1040E000D90708F481C04C2F4695469580E2489F39
:1040F000A0011124C37021E030E0C90102C0880F83
:10410000991FCA95E2F7EA01C82BD92BCE019D6809
:10411000A9C0C03A82E5D807B8F48C2F8F71C03897
:1041200092E5D90708F07BC08695869590E2899F35
:1041300090011124C37081E090E002C0880F991FA4
:10414000CA95E2F79A6868C0C03C82E5D80708F4CF
:104150006DC0C03E92E5D90708F080C0CF71DD2761
:10416000DC2FCC27CE01806F906A7CC081E090E08C
:1041700079C0C55AD0E0C859DE4F8881C82FD0E039
:10418000CE0190646FC0CE0190656CC08D2F0E94EF
:10419000471D182FCE0199270E94961D1F715CC0E4
:1041A000CE0199270E94961DCC27DF70D06A8C2BF8
:1041B0009D2B58C0CF71D0E0DC2FCC27CE01816F72
:1041C000906A50C08C2F8F718695869590E2899F5A
:1041D00090011124C37081E090E002C0880F991F04
:1041E000CA95E2F79C6818C08C2F8F710E94471DFA
:1041F00095E0D695C7959A95E1F7CF70D0E0DC2F82
:10420000CC27282F30E084FF05C084E0220F331F25
:104210008A95E1F7D069CE01822B932B23C090E0E1
:10422000D82FCC27CE01846F906A1CC08C2F8F7141
:104230000E94471D8F7190E0D82FCC27CE0190624D
:1042400011C08D2F8F710E94471D182FCE01992705
:104250000E94961D1F719062912B04C080E090E037
:1042600001C0CE01DF91CF911F9108958091A402EA
:10427000882331F01092A4021092A3021092A2029D
:10428000089580959091660289238093660208952F
:1042900080959091670289238093670208958091A9
:1042A0003C01882351F18091720287FF26C00E9451
:1042B000D82780932F0240E250E06AE772E08EE256
:1042C00092E00E949E34892BD9F180E2EEE2F2E086
:1042D000AAE7B2E001900D928A95E1F7E0916E02B3
:1042E000F0916F02309761F186E080932E02048096
:1042F000F581E02D8EE292E022C00E94D8278093C3
:10430000260248E050E06AE972E086E292E00E940C
:104310009E34892BA9F088E0E6E2F2E0AAE9B2E057
:1043200001900D928A95E1F7E0916E02F0916F0293
:10433000309731F00280F381E02D86E292E009951A
:104340000895A6E0B0E0E7EAF1E20C94E9330E94B8
:10435000D0198C018091A5029091A6020817190727
:1043600081F019821A820E94D019682F49815A81DE
:10437000792F80E090E00E94E72F1093A60200932F
:10438000A5022696E4E00C9405349091A402292F0E
:10439000282379F0809589238093A402882319F03B
:1043A0000E94D01902C080E090E09093A302809315
:1043B000A2020895ACE0B0E0E0EEF1E20C94DE334E
:1043C000AE014F5F5F4F7A0188E0DA011D928A9556
:1043D000E9F705E411E06A0189E4682E81E0782EAE
:1043E000AA24A394B12C2FE4822E21E0922EF8016E
:1043F00080818F3F09F440C0F894E82FE295EF7078
:10440000F0E021A18F70A50102C0440F551F8A95CD
:10441000E2F7CA01922F982B91A392A1809589234C
:1044200082A3789400C0E9E4F1E0512C31E02191BD
:104430002F3F89F0A22FA295AF70B0E090968C919B
:1044400090E02F7002C0959587952A95E2F780FD40
:1044500002C0832F01C080E0582A330F8E169F06BA
:1044600031F7D8018C918F3F11F00E948B1FB0EA79
:10447000BA95F1F7F60150820F5F1F4FFFEFCF1A89
:10448000DF0A6016710609F0B2CF48E050E0B701CC
:1044900088EB91E00E949E34892B99F088E0F70127
:1044A000A8EBB1E001900D928A95E1F781E080934D
:1044B000A9020E94D0199093A8028093A702F12C20
:1044C00027C08091A9028823D1F30091C101809176
:1044D000A7029091A8020E94B519059780F310E0F9
:1044E000075E1D4F44E050E068EB71E0C8010E9498
:1044F0009E34892B09F4E6C084E0E8EBF1E0D801B2
:1045000001900D928A95E1F7FF24F3941092A9028D
:1045100080916A02E091C101882309F481C0198663
:104520001A861B861C860E2F10E0075E1D4F809199
:10453000CF028A3058F441E15FE1BE01675F7F4FEF
:10454000C8010E94321E8823E9F10AC08091AA02A4
:104550009091AB020E94B519843F914060F743C02F
:1045600045ED5EE1BE01675F7F4FC8010E94321ECC
:10457000882341F14CEB5FE1BE01675F7F4FC801CB
:104580000E94321E8823F1F04FEA5EE1BE01675FB0
:104590007F4FC8010E94321E8823A1F01092CF02E3
:1045A0008091C00190E044E050E0BE01675F7F4F22
:1045B000875E9D4F0E949E3421E02093B002892B9C
:1045C00001F57AC08091CF028F3F19F08F5F809301
:1045D000CF028091CF028A3018F30E94D0199093B5
:1045E000AB028093AA028091B002882309F464C0D0
:1045F000FE01399684E0DF011D928A95E9F7109259
:10460000B002E091C001F0E0E75EFD4F89859A8538
:10461000AB85BC8580839183A283B38381E04DC049
:104620000091C00110E0075E1D4FF0E0E75EFD4F16
:1046300084E0A2EBB2E001900D928A95E1F782EB63
:1046400092E00E948F298093B10284E0E6EBF2E0D1
:10465000D80101900D928A95E1F78090BA0290906E
:10466000BB02A090BC02B090BD028091AC029091C0
:10467000AD02A091AE02B091AF0288169906AA06CB
:10468000BB06B1F08092AC029092AD02A092AE0255
:10469000B092AF020E94C419861A970AA80AB90AF2
:1046A0008092B4019092B501A092B601B092B70188
:1046B0008091BE028093D20180E08F292C96EFE09A
:1046C0000C94FA33F12C22CF209122039091E9022D
:1046D00057E02917A9F030E0529FF001539FF00DE9
:1046E0001124E651FD4F7181761306C07081781355
:1046F00003C07581741306C02F5F3F4F2770E9CF49
:1047000080E0089581E00895109226031092250319
:1047100010922403089590912303292F282321F038
:10472000809598239093230308958091220390917C
:10473000E902891719F08F5F8770FBCF0895A0E019
:10474000B0E0E5EAF3E20C94E6338091E80282956A
:104750008F7009F052C08091E702882309F44DC0A0
:10476000C091220387E0D82E8091E902C81709F48E
:1047700044C0D0E0DC9E8001DD9E100D1124F801C4
:10478000E651FD4F84818823A9F191818091E30254
:10479000981330C090818091E20298132BC08581DC
:1047A000811128C0E280F3808091E4029091E502BB
:1047B000E81AF90A60E082EE92E00E94752F62EE3C
:1047C00072E00E94D82DE816F906A0F48091E80264
:1047D0008F7080618093E802F801E051FD4F808185
:1047E0008F708061808382EE92E00E947A0E0E9438
:1047F000952303C02196C770B7CFCDB7DEB7E7E0EA
:104800000C940234CF92DF92FF920F931F93CF93B9
:10481000DF936C010091EB018091C201082BC3E092
:10482000D0E010E0C8010C2E02C0959587950A943F
:10483000E2F780FD04C02197A8F7F12C09C0FC2EF7
:10484000B6018C2F0E94FC1F0E941920019799F33A
:104850008F2DDF91CF911F910F91FF90DF90CF901F
:104860000895CF93DF93EC010E940224BE010E94C1
:10487000FC1F0E941920DF91CF910895FC01248133
:104880002223D9F0808191810E94312492959F70DA
:10489000963079F010F4925001C09A50923068F43A
:1048A000803F69F018F4883E40F409C0843F29F441
:1048B00006C0883E20F0813F11F080E0089581E03D
:1048C0000895A4E1B0E0E7E6F4E20C94DE338C0155
:1048D00086E0F801DE011F9601900D928A95E1F7BE
:1048E000F8017480E58082EEA82E82E0B82E8091D7
:1048F000E602811122C0772009F454C0EE2009F4A9
:104900004EC0C8010E943E24F82E882309F447C0F7
:1049100087E0F801A2EEB2E001900D928A95E1F7EE
:104920008091E602813031F48091E2029091E302BD
:104930000E9431240E949F236DC1F801C280D38060
:10494000F090E7028091E4029091E502FF2009F4E3
:10495000FAC0508061804601881A990A60E082EEB0
:1049600092E00E94752F62EE72E00E94D82D8816A8
:10497000990608F0A2C07720A9F08091E802382FAC
:10498000307F2091E302F8019181332371F02917E0
:1049900009F463C0C8010E943E24811167C0C801A8
:1049A0000E947A0EFF24F39435C1291314C020917C
:1049B000E202908129130FC0E1100DC08F70806159
:1049C0008093E80282EE92E00E947A0E8091E802E3
:1049D000F80186831EC1E1103AC040E0662D852DA6
:1049E0000E94642340E0662D852D0E946423E82EFA
:1049F00081110FC15F86688A8F8598890E94312452
:104A0000292F22952F70243020F49F70223028F017
:104A100009C02A50223080F014C0992349F0811136
:104A200007C013C0992321F0F8019681907F69F0A7
:104A3000805E883030F409C0803F38F0815F833079
:104A400020F0C8010E947A0EEF2CFE2CE3C080916A
:104A5000E80281608093E802DCC02091E202F80164
:104A60009081291397CFE11095CFB2C0EE2009F4C1
:104A700096CF2091E802822F82958F7090E0029766
:104A80008CF08091E2029091E30299878887DB861F
:104A9000CA868091E6028C871D862E87CE010896F5
:104AA0000E947A0E87E0F801A2EEB2E001900D922A
:104AB0008A95E1F70E949F2375CF8091E802982F95
:104AC000907F51F482EE92E00E947A0E87E0F50129
:104AD00011928A95E9F79DC0772009F463CF209160
:104AE000E302F801918129130CC02091E202908128
:104AF000291307C0E11005C08683C8010E947A0E01
:104B000082C0C8010E943E24882309F448CFEE20C9
:104B100009F445CF2091E802822F82958F7090E0B2
:104B200002970CF4BFCF8091E2029091E3029A8346
:104B30008983DC82CB828091E6028D831E822F8363
:104B4000CE010196ADCF4601881A990A60E082EE47
:104B500092E00E94752F62EE72E00E94D82D8816B6
:104B6000990608F050C0772009F41CCFFE2CEE20E7
:104B700009F415CF9091E302F8018181981335C0B3
:104B80009091E2028081981330C08091E40290916C
:104B9000E502C81AD90AF4EBCF16D104E8F48091E3
:104BA000E80280FD19C082958F70482F50E04115B2
:104BB000510591F02091E802F80126834F3051050C
:104BC00041F08F5F982F9295907F822F8F70892B65
:104BD0008683C8010E947A0E87E0F801A2EEB2E057
:104BE00001900D928A95E1F715C0C8010E943E24FC
:104BF000811158CF8091E80281608093E802C8015A
:104C00000E947A0E07C087E0F50111928A95E9F7B4
:104C100001C0F12C8F2D6496EFE00C94FA33292F0C
:104C2000983078F5863068F590E036E0239F800D67
:104C3000911D1124682F677023E0969587952A951A
:104C4000E1F7FC01EE0FFF1FE80FF91FE053FD4FE6
:104C500040E050E080E0219130E0062E02C0369521
:104C600027950A94E2F721703327042E01C0220F02
:104C70000A94EAF7822B4F5F5F4F4330510559F793
:104C8000089580E00895292F983088F5863078F5CA
:104C900090E036E0239F800D911D1124282F27706E
:104CA00051E001C0550F2A95EAF723E096958795C4
:104CB0002A95E1F7FC01EE0FFF1FE80FF91FE05303
:104CC000FD4F20E030E070E04081CB01022E02C0B9
:104CD000969587950A94E2F78170819584278523BC
:104CE000842781932F5F3F4F2330310569F7089563
:104CF0008093EB0108959091EB0121E030E0F90100
:104D000001C0EE0F8A95EAF7D90102C0AA0FBB1FB6
:104D10006A95E2F7BD016E2B01C0220F4A95EAF7B2
:104D2000892F8623681303C0892F822B03C0209507
:104D3000822F89230E947826089521E030E001C067
:104D4000220F8A95EAF720958091EB0182230E9439
:104D500078260895909126038095892380932603D1
:104D6000282F277069F4981759F09091730292FFD9
:104D700007C08695869586950E949D260E9484236D
:104D800008959091730292FB222720F9281779F059
:104D900080FB92F99093730260917202709173029A
:104DA00084E090E00E94673482E00E94AA26089581
:104DB00021E030E001C0220F8A95EAF78091EB01F3
:104DC000822B0E94782608958093C2010895109244
:104DD000670280913C01882341F08091720287FF35
:104DE00004C08EE1E0E3F2E003C086E0E8E2F2E036
:104DF000DF011D928A95E9F780E090E00E948F1A0A
:104E000080E090E00E946A1A109266020E944F2190
:104E10000895882321F00E9441210E944F21089586
:104E2000882339F090916602892B809366020E9454
:104E30004F210895882321F00E9448210E944F218C
:104E40000895882339F090916702892B8093670237
:104E50000E944F210895882339F19CEF980F913AD1
:104E600018F40E94051A0DC090E2980F983060F473
:104E7000877091E001C0990F8A95EAF7892F0E9407
:104E800048210E944F2108959BE5980F933028F404
:104E900080E090E00E948F1A0895885A8B3120F4A8
:104EA00080E090E00E946A1A0895CF93882309F465
:104EB00065C0C82F8CEF8C0F813AA0F580913C0122
:104EC0008823E1F08091720287FF18C0EC2FE695ED
:104ED000E695E695F0E0E25DFD4F8281282F30E017
:104EE0004C2F477081E090E002C0880F991F4A95CF
:104EF000E2F782239323892B61F410C0E8E2F2E009
:104F00008EE292E02191C21721F08E179F07D1F710
:104F100005C08C2F0E94051A0E944F218C2F0E94E1
:104F2000331A10C080E28C0F883078F4C77081E0AB
:104F300090E001C0880FCA95EAF790916702892B2B
:104F4000809367020E944F2119C0EBE5EC0FE3301C
:104F500040F4F0E0E859FE4F808190E00E948F1A03
:104F60000DC0C85ACB3150F4EC2FF0E0EE0FFF1F0C
:104F7000E559FE4F808191810E946A1ACF91089570
:104F80001F93CF93DF93182FEB010E945527209793
:104F900041F08FE99FE00197F1F700C000002197F1
:104FA000F6CF812F0E942B27DF91CF911F9108957B
:104FB000CF93C091670280916602C82B8091A402B2
:104FC000882359F10E94D0192091A2023091A302A6
:104FD000821B930B8838934110F00E9436218091F8
:104FE000A402C82B80913C01882341F08091720279
:104FF00087FF04C02EE180E392E003C026E088E250
:1050000092E0FC0180E0215028F091919923D9F39E
:105010008F5FF9CF81110E94362180915C028095CB
:10502000C82380915D028C2BCF91089590917302DB
:1050300092FF10C098E0899F90011124262B2093A5
:1050400026030E94D8260E94D019909325038093AE
:10505000240308950E94D8260895CF93DF93682FE4
:105060008A3011F481E003C08D3021F480E00E9489
:10507000E72C6FC0809146059091470526E0FC0122
:10508000A0E4B5E001900D922A95E1F7603E30F082
:1050900026E0FC0111922A95E9F70AC0F6E06F9F1D
:1050A000B0011124655A784F46E050E00E94123456
:1050B000C0914605D091470546E050E0BE0180E42E
:1050C00095E00E949E34892B49F19E012054334083
:1050D000A90185E0569547958A95E1F781E090E032
:1050E000BC0102C0660F771F4A95E2F740913E036C
:1050F00050913F03462B572B2B5F3F4F65E0369572
:1051000027956A95E1F702C0880F991F2A95E2F763
:10511000842B952B90933F0380933E039E012A534B
:10512000334040913D03642F70E0C9010E94C733B2
:10513000481B463010F4240F311D211582E038073A
:1051400010F020E030E0205C3C4F30934705209386
:105150004605DF91CF910895CF93DF93EC01FE01D7
:105160008491882321F00E942D282196F8CFDF9189
:10517000CF9108950E94AC2881E00E94E72C089509
:105180000F931F93CF93DF93EC01FC01019000205C
:10519000E9F78F0101501109C017D10720F4899157
:1051A0000E942D28F9CFDF91CF911F910F91089583
:1051B000A0E0B0E0EEEDF8E20C94E333EC018AE01D
:1051C000A82E2881222309F4A5C0213009F048C067
:1051D0008981813071F48E010E5F1F4F8A8189337E
:1051E00019F060E070E002C060E570E00E94C02746
:1051F00011C0823039F48E010E5F1F4F8A810E94E8
:10520000552708C0833041F48E010E5F1F4F8A81FD
:105210000E942B27E8017CC0843011F0219678C0D1
:105220002A81229680E090E030E0205331092A3034
:10523000310558F4A89EA001A99E500D1124C90162
:10524000840F951F21962881EFCF009709F460C045
:10525000EFE9FFE03197F1F700C000000197F5CFCB
:10526000E22FF0E0E552F94FB490822F86958695B3
:10527000869590E0FC01E553F94FE4902770F12CFE
:10528000022E02C0F594E7940A94E2F7F1E0EF22CF
:10529000FF24FC01E554F94FC490D12C022E02C02A
:1052A000D594C7940A94E2F731E0C322DD24FC01CF
:1052B000E555F94F049110E002C0159507952A9520
:1052C000E2F701701127E114F10419F081EE0E9458
:1052D0005527C114D10419F086EE0E94552760E0CD
:1052E00070E08B2D0E94C027C114D10419F086EE06
:1052F0000E942B27E114F10419F081EE0E942B2764
:105300000115110529F060E070E08CE20E94C027D1
:10531000219657CFCDB7DEB7EAE00C94FF33FC01FE
:10532000AC014C5F5F4F8FEF91E32191822728E022
:1053300030E087FF03C0880F892701C0880F215004
:105340003109B9F7E417F50781F70895AAE2B0E04B
:10535000ECEAF9E20C94EA33E5E3F3E08DE393E061
:105360002091F10021938E179F07D1F7809136038A
:10537000833009F463C030F4813071F0823009F475
:105380009DC0B4C08A3009F489C08B3009F46EC066
:10539000893009F0ABC020C080913503813A09F013
:1053A000A5C08091E800877F8093E8008091390351
:1053B00090913A03892B21F468E089E293E003C0DD
:1053C00060E080E090E070E00E9499188091E80031
:1053D0008B778093E8008AC080913503813209F091
:1053E00085C08091390390913A03009719F0029794
:1053F00009F07CC08091E800877F8093E80080916D
:10540000E80082FD05C0809133038111F8CF6EC0A2
:105410002091F3008091F20090E0922B029731F4FA
:105420008091F100813011F0863021F48091F100FB
:10543000809328038091E8008B7754C080913503D6
:10544000813A09F053C08091390390913A03892B36
:1054500009F04CC08091E800877F8093E80080913C
:10546000E80080FFFCCF80913C0137C0809135037C
:105470008132E1F58091390390913A03892BB1F59E
:105480008091E800877F8093E8000E941317809145
:10549000370380933C010E94E72628C080913503A2
:1054A000813221F58091E800877F8093E8000E9497
:1054B0001317809138038093270318C08091350318
:1054C000813AA1F48091E800877F8093E800809181
:1054D000E80080FFFCCF809127038093F10080914A
:1054E000E8008E778093E8000E9413178091E8000F
:1054F00083FFEBC18091350390913603492F50E033
:105500004A30510508F0E1C1FA01E855FF4F0C940B
:105510009134803821F0823809F0D7C108C08091D9
:10552000310390913203992389F082600FC08091FA
:1055300039038F70873008F0C8C18093E9008091EB
:10554000EB0085FB882780F91092E9009091E80034
:10555000977F9093E8008093F1001092F1007CC156
:10556000282F2D7F09F0B1C1882319F0823061F016
:10557000ACC180913703813009F0A7C1933009F0A5
:1055800080E0809332032EC08091370381112AC0BE
:10559000809139038F702FEF280F263008F095C1C6
:1055A0008093E9002091EB0020FF1CC0933021F490
:1055B0008091EB00806214C09091EB009061909319
:1055C000EB0021E030E0A90102C0440F551F8A958D
:1055D000E2F74093EA001092EA008091EB008860C5
:1055E0008093EB001092E9008091E800877F809320
:1055F000E8000E94131769C1811167C11091370338
:105600001F778091E3008078812B8093E300809165
:10561000E800877F8093E8000E9413178091E800DC
:1056200080FFFCCF8091E30080688093E30011113C
:1056300002C082E001C083E08093330346C18058FA
:10564000823008F042C120913703309138032C3D5D
:1056500053E0350779F583E08A838AE289834FB77F
:10566000F894DE01139620E03EE051E2E32FF0E0F3
:1056700050935700E49120FF03C0E295EF703F5F25
:10568000EF708E2F90E0EA3010F0C79601C0C09600
:105690008D939D932F5F243149F74FBF8091E80090
:1056A000877F8093E8006AE270E0CE0101960E9455
:1056B0009918C0C08091390390913A03432F552720
:1056C00043305105B1F068F44130510509F40CC183
:1056D0004230510509F0F9C08BE590E0ECEFF5E0C0
:1056E00057C04132510589F14232510509F43CC09D
:1056F000ECC0C901992781309105B9F070F0823072
:105700009105D9F0039709F0E0C0E9E6F6E0E491ED
:105710008E2F90E0E9E6F6E038C0E7EAF6E0E491A3
:105720008E2F90E0E7EAF6E030C0E5E9F6E0E4919C
:105730008E2F90E0E5E9F6E028C0E7E8F6E0E49196
:105740008E2F90E0E7E8F6E020C08330910508F066
:10575000BCC0880F991FFC01E455FE4F0190F081F9
:10576000E02D89E090E014C08330910508F0ADC0D1
:10577000FC01EE0FFF1FEA55FE4F0190F081E02D76
:10578000DC01AD55BE4F8C9190E0009709F49DC0AF
:105790002091E800277F2093E80020913B0330917F
:1057A0003C032817390708F4C90140E0009789F144
:1057B00020913303222309F43DC02530D9F12091F3
:1057C000E80023FD37C02091E80022FD2FC0209182
:1057D000E80020FFEBCF4091F3002091F20030E091
:1057E000342B009759F02830310540F44491409310
:1057F000F100319601972F5F3F4FF3CF41E0283002
:10580000310509F040E02091E8002E772093E80070
:10581000CDCF4111CDCF0AC080913303882351F001
:10582000853041F08091E80083FD04C08091E8005C
:1058300082FFF2CF8091E8008B778093E80045C02B
:10584000803809F042C08091E800877F8093E800AB
:10585000809134038093F1008091E8008E77C7CE69
:10586000811133C0809137039091380399270297B3
:1058700064F58091E800877F8093E80010913703FA
:10588000109334030E941317111106C08091E30096
:1058900087FD02C081E001C084E08093330342E0D1
:1058A00061EC81E00E94321742E261EC84E00E94E8
:1058B000321742E261EC82E00E94321742E260EC71
:1058C00083E00E943217809133038091E80083FFC8
:1058D00010C08091E800877F8093E8008091EB0002
:1058E00080628093EB0005C082E190E0E7E5F6E09E
:1058F0004FCFAA96E3E00C940634883080F49B01E5
:10590000982F8AE0989FB001112467557E4F4AE096
:1059100050E0C9010E941B3480E090E008958FEFB1
:105920009FEF08951F93CF93DF93962F8430E8F471
:105930006830D8F44630C8F4632F122FC42FD0E05B
:10594000CC0FDD1F2CE0929FC00DD11D112490E6DD
:10595000899FC00DD11D1124CE0189960E94493422
:10596000612FCE018A960E944934DF91CF911F9119
:1059700008950F931F93CF93DF93843008F5683019
:10598000F8F44630E8F4C42FD0E0CC0FDD1F2CE053
:10599000629FC00DD11D112430E6839FC00DD11D23
:1059A0001124CE0189960E942B3490E0182F0027F5
:1059B000CE018A960E942B349801282BC90102C07F
:1059C00080E090E0DF91CF911F910F910895CF93E8
:1059D000E82F2091460530914705205433404091EF
:1059E0003D03642F70E0C9010E94C733481B842F18
:1059F000EE2351F066E00E948534C82FC150A8F014
:105A000080E20E942D28FACFA901480F511D4115AF
:105A1000524018F080E020E030E0280F311D205C7B
:105A20003C4F3093470520934605CF910895AB0135
:105A300024E630E0BC0188E70E94713121E0892B27
:105A400009F020E0822F089580916C0690916B06FA
:105A5000882389F0992369F062E070E08DE99CE089
:105A60000E94172D811103C080916B06089510923A
:105A70006B0690916B0681E08927089580916C06F2
:105A80008823F9F00E94C419DC01CB01805A9541AA
:105A9000AF4FBF4F8093670690936806A093690647
:105AA000B0936A0680916B0681110BC062E070E0D2
:105AB0008BE99CE00E94172D882319F081E08093E8
:105AC0006B0680916B060895AAE0B0E0EAE6FDE27D
:105AD0000C94E1330FEE15E08DEDC82E85E0D82E45
