:100000000C94F4050C9411060C9411060C94BE305B
:100010000C9411060C9411060C9411060C94110604
:100020000C9411060C9411060C94FE2D0C94D62EF3
:100030000C941D120C9411060C9411060C941106CC
:100040000C9411060C9411060C9411060C941106D4
:100050000C9411060C94DA2D0C9411060C941106D4
:100060000C9411060C9411060C9411060C941106B4
:100070000C9411060C9411060C9411060C941106A4
:100080000C9411060C9411060C9411060C94110694
:100090000C9411060C9411060C9411060C94110684
:1000A0000C9411060C9411060C941106050109809C
:1000B000A101850319012AB700150126B700950192
:1000C00075108100C0050C0901A101850419012AE0
:1000D000A002150126A002950175108100C005013E
:1000E0000906A1018506050719E029E71500250184
:1000F0009508750181020507190029EF15002501F2
:1001000095F075018102050819012905950575010C
:100110009102950175039101C00660FF0961A1017B
:100120000962150026FF00952075088102096315F4
:100130000026FF00952075089102C005010906A15F
:1001400001050719E029E7150025019508750181CA
:10015000029501750881010507190029FF15002680
:10016000FF0095067508810005081901290515008D
:100170002501950575019102950175039101C00056
:10018000AF00AE0000000000003E5B4F5B3E003E53
:100190006B4F6B3E001C3E7C3E1C00183C7E3C18A6
:1001A000001C577D571C001C5E7F5E1C0000183C25
:1001B000180000FFE7C3E7FF00001824180000FF45
:1001C000E7DBE7FF0030483A060E002629792926AA
:1001D00000407F05050700407F05253F005A3CE7AA
:1001E0003C5A007F3E1C1C0800081C1C3E7F00146B
:1001F000227F2214005F5F005F5F0006097F017F9E
:1002000000006689956A0060606060600094A2FFEB
:10021000A2940008047E04080010207E201000082C
:10022000082A1C0800081C2A0808001E10101010BC
:10023000000C1E0C1E0C0030383E383000060E3EFE
:100240000E060000000000000000005F000000003B
:100250000700070000147F147F1400242A7F2A124D
:100260000023130864620036495620500000080736
:10027000030000001C224100000041221C00002A53
:100280001C7F1C2A0008083E08080000807030000F
:10029000000808080808000000606000002010083E
:1002A0000402003E5149453E0000427F400000727A
:1002B00049494946002141494D33001814127F1025
:1002C000002745454539003C4A4949310041211143
:1002D000090700364949493600464949291E0000A8
:1002E0000014000000004034000000000814224107
:1002F00000141414141400004122140800020159BF
:100300000906003E415D594E007C1211127C007FAF
:1003100049494936003E41414122007F4141413E29
:10032000007F49494941007F09090901003E4141D7
:100330005173007F0808087F0000417F41000020C2
:1003400040413F01007F08142241007F404040406F
:10035000007F021C027F007F0408107F003E4141A5
:10036000413E007F09090906003E4151215E007FA0
:10037000091929460026494949320003017F010332
:10038000003F4040403F001F2040201F003F4038BA
:10039000403F006314081463000304780403006101
:1003A00059494D4300007F4141410002040810209B
:1003B00000004141417F000402010204004040402E
:1003C0004040000003070800002054547840007F9C
:1003D0002844443800384444442800384444287FA2
:1003E0000038545454180000087E090200182424D0
:1003F0001C78007F080404780000447D4000002041
:1004000040403D00007F102844000000417F400034
:10041000007C04780478007C0804047800384444A4
:100420004438007C1824241800182424187C007CEC
:10043000080404080048545454240004043F44248D
:10044000003C4040207C001C2040201C003C4030F0
:10045000403C004428102844004C9090907C00447C
:1004600064544C440000083641000000007700004E
:10047000000041360800000201020402003C26236D
:10048000263C00000000000000000000000000000A
:10049000000000C0E0F0F8F81800C0F0FCFEFFFF1C
:1004A000FFFFFFFFFF7E0000000000000000008053
:1004B000C0E0E0E0E0E0E0E0E0C0800000000080BC
:1004C000C0E0E0E0E0E0E0E0E0C080000000E0E06C
:1004D000C0C0E0E0E0E00000E0E0C0C0E0E0E0E05C
:1004E000E0C0800000000080C0E0E0E0E0E0E0E08C
:1004F000E0C08000000000000000000000000000DC
:1005000000E0F0F0F0E0ECEEF7F37020007C7C7C93
:100510007E007E7E7E7F7F7F000080C0E07E5B4F1E
:100520005BFEC00000C000DCD7DEDEDED7DC00C032
:1005300000000000000000000000000000000000BB
:10054000000000000000000000000000F8FCFEFFBA
:10055000E000FFFFFFFFFFFF80FFFFFFFFFFFFFF48
:10056000FFFF1F0701000000000000000000FFFF68
:10057000FF8100000000000081C3C3C30000FFFF33
:10058000FF8100000000000081FFFFFF0000FFFF6F
:10059000FF01000000000000FFFFFF01000000005D
:1005A00001FFFFFF0000FFFFFF9D1C1C1C1C1C1C0B
:1005B0009DDFDFDF00000000000000000000000001
:1005C000000F1F3F7F7F7F7F7F3F1E0C001F1F1F7D
:1005D0003F003F3F3F7F7F7F00307B7F7830202090
:1005E00030787F3B0003000F7F0F0F0F7F0F00035A
:1005F00000000000000000000000000000000000FB
:10060000000000000000000000000000030F1F3F7A
:100610003F3F3F1F1F3F3F7F7F7F3F3F1F3F7F7F0A
:100620007F7F7C7878381C0F0000000000000001FC
:10063000030707070707070707030100000000017A
:10064000030707070707070707030100000007075D
:10065000070000000000000007070700000000007E
:100660000007070700000001030707070707070740
:10067000070301000000000000000000000000006F
:10068000000000000000000000000000000000006A
:10069000000000000000000000000000000000005A
:1006A000000000000000000000000000000000004A
:1006B000000000000000000000000000000000003A
:1006C000000000000000000000000000000000002A
:1006D000000000000000000000000000000000001A
:1006E000000000000000007E0F00D4FFFFFFC700E5
:1006F00000007800000000000000002A2B28000005
:1007000000000000000000000000000000002900C0
:100710000000002C1E3420212224342627252E36CA
:100720002D3738271E1F2021222324252633333638
:100730002E37381F0405060708090A0B0C0D0E0F8B
:10074000101112131415161718191A1B1C1D2F310E
:1007500030232D350405060708090A0B0C0D0E0F72
:10076000101112131415161718191A1B1C1D2F31EE
:1007700030354C09025B00030100A0FA09040000B7
:1007800001030101000921110100012244000705B4
:10079000810308000109040100020300000009218F
:1007A0001101000122220007058203200001070534
:1007B00003032000010904020001030000000921D5
:1007C00011010001226D00070584032000011201C0
:1007D000000200000008534601000100010203016D
:1007E0001C037600690061006C003A006600360068
:1007F00034006300320062003300630000000C0329
:1008000043006F0072006E00650000001003660078
:100810006F006F007300740061006E00000004033D
:1008200009042B0014001A00080015001700E0004E
:1008300004001600070009000A00E1001D001B006B
:10084000060019000500000000000000E300777CAE
:100850002C002A00130012000C0018001C003400A9
:1008600033000F000E000D000B0029003800370088
:10087000360010001100000000000000E600787C47
:1008800028002B001E001F00200021002200E00095
:1008900000000000000000000000E1000000000077
:1008A000000000000000000000000000E300010064
:1008B0002C002A0027002600250024002300000029
:1008C00000004F00520051005000000000000000E6
:1008D000000000000000000000000000E600010031
:1008E00028002B001E021F02200221022202E0002B
:1008F00000000000000000000000E1000000000017
:10090000000000000000000000000000E300010003
:100910002C002A0027022602250224022302350089
:10092000310030002F002E002D0035023102300240
:100930002F022E022D02000000000000E600010040
:100940002800007C0000000000000000000020786B
:1009500023782578277800000000217824782678ED
:10096000287800000000000000000000E300010003
:100970002C0000000000000000000000000000004B
:100980000000000000000000000000000000000067
:10099000000000000000000000000000E600010070
:1009A000280000DA0281FFD9F1DB20A4A62EAF00D7
:1009B000A0C0D30000A1C8D30000AED580A81F40BE
:1009C0008D14200041646A75737400526169736507
:1009D000004C6F7765720044656661756C74004CFD
:1009E000617965723A200080818283848586878858
:1009F000898A8B8C8D8E8F9091929394A0A1A2A3C3
:100A0000A4A5A6A7A8A9AAABACADAEAFB0B1B2B32E
:100A1000B4C0C1C2C3C4C5C6C7C8C9CACBCCCDCE79
:100A2000CFD0D1D2D3D400FD377A585A000004E693
:100A3000D6B4460200210116000000742FE5A3E0A1
:100A4000042F01425D003D8889C65436C3174FE428
:100A5000DCCBB3DF6320E7D71739D83D5F52C90B32
:100A6000ECB7E6D5195224B0736759B3E0B456C752
:100A70004788C96520CF4A3C940C015E29865C8E6C
:100A80001FD2901470DD8177B2096EB5F6AEE9879A
:100A9000F3FD6E8628D433CFB875786A02A926DEB6
:100AA000E8E6250BF2F12FEB95EF757127C27F91E8
:100AB00095E2635AB0D245B872C0B554D7004EDE45
:100AC00062BA2013945BD1FF5921584935658A11C8
:100AD000E5CA1A8401C66412A7BCC461E80A8B8FF8
:100AE0001814972CD485C2CA11139D8194454D5179
:100AF00041C1135A07F3F59C8A2EB089D73F3EF2C5
:100B0000C32110C396AA6256BA70B31061455FB193
:100B100011971836BB16666F7B478FC44223D07679
:100B20007E3FA7ECEA0CBF2774C309BD093C35A87A
:100B3000EED8AEC7E9FF0F2F64DF72C5CDF6701A8D
:100B40008177ECEF634989711EFAEC985A059B0A8C
:100B50000F6BC0B382F93085B0A8A630E1DE91E01A
:100B6000E101A42FEECFFAB4CC09FA55E9DC3EB48A
:100B7000782343F5F745FEAA6A7F620EBDEBFB2C96
:100B8000F315BF380D4959E00000005614AADD31B5
:100B900087545C0001DE02B0080000C0E5C082B1ED
:100BA000C467FB020000000004595A202020206185
:100BB00062636465666768696A6B6C6D6E6F70719D
:100BC00072737475767778797A3132333435363793
:100BD000383930524542545F2D3D5B5D5C233B27E5
:100BE000602C2E2F2020200011241FBECFEFDAE032
:100BF000DEBFCDBF11E0A0E0B1E0E4E8FBE602C05B
:100C000005900D92A43AB107D9F726E0A4EAB1E025
:100C100001C01D92A135B207E1F70E9429260C946C
:100C20006C350C9400009C019A9581159F4118F534
:100C3000F901EE27F270832F8170B9016627747075
:100C4000A9014427587034FF0CC08295807FEF2B98
:100C500009F08062672B09F08064452B69F0806899
:100C60000895EF2B09F08260672B09F08460452B13
:100C700019F08860089580E00895CF93DF93EB0129
:100C80000E941306FE010995DF91CF91089580938C
:100C90000606089580930706089521E030E001C01C
:100CA000220F8A95EAF780910706822B0E944A0656
:100CB000089521E030E0A90102C0440F551F8A9534
:100CC000E2F7CA0180959091070689230E944A069F
:100CD0000895292F983098F5863088F590E036E011
:100CE000239F800D911D1124282F277041E001C002
:100CF000440F2A95EAF723E0969587952A95E1F720
:100D0000FC01EE0FFF1FE80FF91FE85CFA4F20E02F
:100D100030E070E05191DF011197CB01022E02C04B
:100D2000969587950A94E2F78170819585278423AB
:100D300085278C932F5F3F4F2330310559F7089556
:100D4000292F983078F5863068F590E036E0239FBB
:100D5000800D911D1124682F677023E0969587956B
:100D60002A95E1F7FC01EE0FFF1FE80FF91FE85C81
:100D7000FA4F40E050E080E0219130E0062E02C0C2
:100D8000369527950A94E2F721703327042E01C087
:100D9000220F0A94EAF7822B4F5F5F4F43305105D1
:100DA00059F7089580E008959091070621E030E01A
:100DB000F90101C0EE0F8A95EAF7D90102C0AA0F26
:100DC000BB1F6A95E2F7EA2B01C0220F4A95EAF7AA
:100DD000892F8E23E81305C0892F822B0E944A0693
:100DE00008952095822F8923F9CF80910F06909145
:100DF0000E06981301C008958F5F8770FACF909107
:100E000009068095892380930906282F27702111D0
:100E100011C0891779F09091500692FF0BC086950A
:100E2000869586950E9459061092090610920B0627
:100E300010920A060895982F9095809104068923B0
:100E400080930406089580910306882331F0109260
:100E5000030610920D0610920C060895803E91052F
:100E6000D1F1C8F48133910509F47FC048F4893287
:100E7000910509F46FC08A32910509F47DC0089587
:100E800089339105E1F082389105C9F085339105E8
:100E900009F45BC00895843E9105D1F148F4823E87
:100EA000910531F1833E910541F181EE90E0089585
:100EB000863E9105C1F1873E9105E1F108952091AB
:100EC0004F062370211165C02091500623FF14C0E6
:100ED00089E290E0089520914F0620FD43C03091B3
:100EE000500630FF09C024FF4EC080E090E0089516
:100EF00020914F0622FDF7CF089520914F0622FD45
:100F000045C03091500630FD44C024FFF5CFEDCFF1
:100F10002091500621FFF0CF80914F0684FDE5CF50
:100F200087EE90E0089520914F0623FFE5CF24FD42
:100F3000DCCFF6CF20914F0623FD2EC03091500616
:100F400031FFE3CF84EE90E0089520914F0625FF16
:100F5000D3CFBECF20914F0625FD21C02091500652
:100F600023FFCACF89E390E0089520914F0626FF22
:100F7000C3CF8AE290E0089520914F0626FFBCCFB0
:100F800081E390E0089583EE90E0089582EE90E092
:100F9000089580EE90E0089586EE90E0089585E350
:100FA00090E0AACF90914F0692FF10C041E0282F09
:100FB0002471243009F040E031E0282F28712830D6
:100FC00009F030E0431711F02CE0822793FF10C0A6
:100FD00041E0282F2471243109F040E031E0282F2E
:100FE0002871283109F030E0431711F02CE08227F6
:100FF0003091500630FF10C051E0282F2171213070
:1010000009F050E041E0282F2871283009F040E035
:10101000541711F029E0822731FF10C041E0282F3A
:101020002171213109F040E031E0282F2871283169
:1010300009F030E0431711F029E0822794FD877E04
:1010400008951F93CF93DF930E942E07EC01811523
:1010500022E5920708F053C0811540E5940708F097
:10106000DDC0803E9105F8F48D3C910508F0AEC0DE
:10107000883A910580F4853A910508F099C081304D
:10108000910521F00497813A910550F4CE01DF914A
:10109000CF911F910895885A91094B9708F48BC0FE
:1010A000C0E0D0E0F3CF811550E49507F8F4C11506
:1010B00080E2D80708F0CBC0C83ED10538F3CE0196
:1010C0009A9581159F4160F78D2F0E94D207182FA6
:1010D000CE0199270E942E07212F30E0322F2227A0
:1010E000E901CC27DF71C82BD92BD0CF99270E94DB
:1010F0002E07CC27DF70C82BD92BD06AC7CF8038FA
:1011000042E59407C8F5803652E5950708F067C0B8
:10111000C03482E5D807B0F08C2F8695869587700D
:1011200020E2829FC0011124C37021E030E0A901B8
:1011300002C0440F551FCA95E2F7EA01C82BD92B0C
:10114000DC68A4CFC03252E5D50708F041C08C2F2F
:101150008695869520E2829FC0011124C37021E00C
:1011600030E0A90102C0440F551FCA95E2F7EA0119
:10117000C82BD92BDD688ACF803C52E5950760F4F7
:101180008F71C03AD24508F03FC090E0982F882771
:10119000EC01C46FD06A7ACF805C9245809708F0EA
:1011A0007FCFDC2FCC27CC27DF71C06FD06A6ECF0A
:1011B000A497D0646BCFC85AD0E0CC0FDD1FC259C2
:1011C000DE4F0990D881C02DD46460CFD0655ECF4A
:1011D000CF71D0E0DC2FCC27C16FD06A57CF869576
:1011E0008695877020E2829FC0011124C37021E0A0
:1011F00030E0A90102C0440F551FCA95E2F7EA0189
:10120000C82BD92BDA6842CF0E94D207C82FD0E072
:10121000DC2FCC27CC27DF71D06238CF8F710E94B2
:10122000D20765E0D695C7956A95E1F7CF70D0E013
:10123000DC2FCC27282F30E084FF05C054E0220F9C
:10124000331F5A95E1F7C22BD32BD0691FCF8D2FB7
:101250008F710E94D207182FCE0199270E942E0766
:10126000212F30E0322F222722273F71282B392BC4
:10127000E901D2CF80E00895F894E82FE295EF706D
:10128000F0E041A18F7021E030E0B90102C0660FAB
:10129000771F8A95E2F7CB01962F9095942391A31F
:1012A00092A1892B82A37894089581152CE7920747
:1012B00041F42091EA043091EB04232B11F480E0F7
:1012C00090E00895E1E8F5E080E090E06CED73E2F5
:1012D00043E054E228E734E277836683518740870E
:1012E0003387228797878687019670968830910585
:1012F00099F70895FC018481862381110AC08281B7
:101300008823B9F06823908593FF05C081E06111BF
:101310000FC080E00895282F22952F708F70282B02
:10132000962F92959F706F70962B81E02913F1CFC5
:10133000089581E0FDCFFA01309709F009950895ED
:1013400080910205882359F0E0912E05F0912F0538
:10135000309729F00190F081E02D0995089580E003
:101360000895A3E0B0E0E7EBF9E00C94FD319C01B7
:101370008091FC019091FD0182179307A1F03093B9
:10138000FD012093FC01E0912E05F0912F0530978F
:1013900051F083E089833B832A830084F185E02D2B
:1013A000CE01019609952396E2E00C941932A3E050
:1013B000B0E0EDEDF9E00C94FD319C018091FA0173
:1013C0009091FB0182179307A1F03093FB012093CA
:1013D000FA01E0912E05F0912F05309751F084E04D
:1013E00089833B832A830084F185E02DCE01019619
:1013F00009952396E2E00C94193290912A019923E1
:10140000C1F090914F0697FF14C0E82FE695E6953E
:10141000E695803FF8F4F0E0E255FE4F877021E05A
:1014200030E001C0220F8A95EAF78281822B828305
:101430000895A8EAB1E0EFEF90E02D91821751F006
:10144000EF3F19F4211101C0E92F9F5F9630A9F7F2
:10145000EF3F09F408950E2E000CFF0BEA55FE4FE6
:10146000E6CF90912A019923E1F090914F0697FFE2
:1014700018C0E82FE695E695E695803FF0F4F0E099
:10148000E255FE4F877021E030E0A90102C0440F11
:10149000551F8A95E2F7CA0180959281892382833C
:1014A0000895E8EAF1E09191891303C0DF011197F3
:1014B0001C9251E0EE3AF507B1F70895A4E0B0E0D0
:1014C000E4E6FAE00C94FD318FB7F8942091F60130
:1014D0003091F7014091F8015091F90129833A8345
:1014E0004B835C838FBF69817A818B819C81249639
:1014F000E2E00C941932A4E0B0E0E1E8FAE00C94E8
:10150000FD3180910205882371F00E945E0A698393
:101510007A838B839C8369817A818B819C812496D9
:10152000E2E00C9419320E945E0A69837A838B830D
:101530009C838091040590910505A0910605B091CA
:10154000070529813A814B815C81280F391F4A1F89
:101550005B1F29833A834B835C83DDCFA4E0B0E03B
:10156000E4EBFAE00C94FB31462F572FBC012FB768
:10157000F8948091F6019091F701A091F801B09153
:10158000F9012FBF8C019D01041B150B260B370B96
:10159000C901B8012496E4E00C941732A6E0B0E04B
:1015A000E4EDFAE00C94F9317C010091770510919B
:1015B0007805209179052E8380917A058D83B80175
:1015C000822F9D810E94AE0A643F71408105910582
:1015D00018F10E945E0A8B018E839D8382E390E066
:1015E000A0E0B0E00093AA021093AB022E812093FA
:1015F000AC022D812093AD028093A6029093A702A6
:10160000A093A802B093A902E0927505F092760526
:101610002696E6E00C94153284EF91E0A0E0B0E06D
:10162000E1CF87E797E7909301088093000888E16E
:101630009AE00FB6F894A895809360000FBE90933F
:101640006000FFCF8091F50108950895FC019B0192
:101650008091EB019091EC018617970740F0672B82
:1016600029F48091E8008E778093E800C90140E07A
:10167000009741F4411106C08091E80082FF2FC01D
:1016800080E008952091EC042223A9F12530A9F1EE
:101690002091E80023FD2DC02091E80022FDECCF31
:1016A0002091E80020FFE4CF3091F3002091F20078
:1016B000009719F02830310558F041E02830310505
:1016C00009F040E02091E8002E772093E800D0CF89
:1016D00041914093F10001972F5F3F4FE9CF8091F7
:1016E000EC04882341F0853041F08091E80083FFCD
:1016F000C3CF81E0089582E0089583E0089580914A
:10170000E50187FF13C08091E80082FF06C0809149
:10171000E8008B778093E80004C08091EC0481118D
:10172000F2CF08958091EC048823D9F38091E800EA
:1017300080FFF8CF8091E8008E77ECCF2091E40015
:101740003091E50095E6A9018091EC008170882335
:1017500031F08091E80080FF06C080E0089520917C
:10176000E80022FD1BC08091EC04882391F08530B5
:1017700091F08091EB0085FD10C02091E400309144
:10178000E5004217530701F391509111DCCF84E03B
:10179000089582E0089583E0089581E00895E8EDDA
:1017A000F0E080818E7F80831092E2001092DA0058
:1017B0001092E100A0EEB0E08C9181608C9380816A
:1017C0008F77808319BCA7EDB0E08C918E7F8C93CE
:1017D00080818F7E80831092E4010895FC01AC012A
:1017E0004C5F5F4F8FEF91E32191822728E030E03B
:1017F00087FF0BC0880F892721503109211531053A
:10180000B9F7E417F50781F70895880FF5CF982FFA
:10181000E42FE2709093E900891308C0762F242FFB
:1018200050E0E11111C091E0980FF4CF7091EC00FD
:101830002091ED005091F00021FD06C09F5F973090
:1018400049F78093E90008953091EB003E7F309393
:10185000EB003091ED003D7F3093ED003091EB00D7
:1018600031603093EB007093EC002093ED005093C7
:10187000F0002091EE0027FDE1CF0895A0E0B0E058
:10188000E4E4FCE00C94F731C8EDD0E088818F7E71
:101890008883E7EDF0E080818160808384E082BF0F
:1018A00081E08093E40188818E7F888302EE10E0DE
:1018B000F80110821092DA0081EEC82ED12CF601C8
:1018C000108288818F778883888180688883888167
:1018D0008F7D888319BC1092EC041092E301109262
:1018E0009C021092E20190EEE92EF12CF70180812A
:1018F0008B7F808388818160888342E060E080E024
:101900000E94070CF60180818E7F8083F801808120
:1019100081608083808188608083F70180818E7FF1
:101920008083888180618883CDB7DEB7E8E00C943E
:101930001332E0910F0690910E0627E0E91302C0E2
:1019400080E00895AE2FB0E02E9FF0011124E05FFB
:10195000F94F3181361306C03081381303C0358109
:10196000341304C0FD013196E770E8CF81E008959B
:101970000F931F93CF93DF93EB018A019091EC04B7
:10198000943079F58093E9008FEF9091E80095FD10
:1019900007C095ED9A95F1F7000081508111F5CFC0
:1019A0008091E80085FF1DC00E949E0B811114C02C
:1019B0008091E80085FD06C08091E8008E778093D5
:1019C000E800F2CF88818093F100015011090115E0
:1019D000110511F02196ECCF8091E8008E7780936D
:1019E000E800DF91CF911F910F910895CF93DF937E
:1019F000D82FC92F48E050E0682F792F81E00E944E
:101A0000B80C88E0ED2FFC2FADEEB1E001900D9207
:101A10008A95E1F7DF91CF910895BC0140E250E053
:101A200084E00E94B80C0895BC0143E050E084E0DB
:101A30000E94B80C0895A0E0B0E0E1E2FDE00C9453
:101A4000F531F82EE92EB62EA72E8A018091E001FD
:101A5000CC24C394D12C8A3018F48AE0C82ED12C1F
:101A6000C1E0D0E06B2D7A2D8F2D9E2DF8010995C8
:101A7000811116C02196CC16DD0694F0CC9FC001D2
:101A8000CD9F900D900D112420E030E045E34A9564
:101A9000F1F700002F5F3F4F28173907B9F7E2CF62
:101AA000CDB7DEB7EAE00C9411329091500692FB6C
:101AB000222720F9281779F080FB92F9909350069D
:101AC00060914F067091500684E090E00E944E3580
:101AD00082E00E94FF0608951F93CF93DF93962F15
:101AE000122F632F8430D8F49830C8F44630B8F4FD
:101AF000C42FD0E0CC0FDD1F2CE0929FC00DD11D74
:101B0000112490E6899FC00DD11D1124CE01899624
:101B10000E943035612FCE018A960E943035DF91C8
:101B2000CF911F910895CF93DF93C9E4D2E060E095
:101B3000CE010E9430352196C11584E0D807B9F74F
:101B4000DF91CF910895882381F06AEA85E290E0E1
:101B50000E9430356CEF86E290E00E94303562E200
:101B600087E290E00E94303508956FEF85E290E0C3
:101B70000E9430356FEF86E290E00E9430356FEFC3
:101B8000EFCF0F931F93CF93DF93843030F56830FE
:101B900020F5463010F5C42FD0E0CC0FDD1F2CE02F
:101BA000629FC00DD11D112430E6839FC00DD11D51
:101BB0001124CE0189960E941235082F10E0102FB3
:101BC0000027CE018A960E9412359801282BC90160
:101BD000DF91CF911F910F91089580E090E0F8CFB1
:101BE000462F672F20910A0530910B05232B91F486
:101BF000703F39F4403F71F48091080590910905D8
:101C00000895783038F4463028F4843018F40E946F
:101C1000C10D089580E090E00895A0E0B0E0E3E118
:101C2000FEE00C94F8317C010091070680910606D5
:101C3000082BC3E0D0E010E0C8010C2E02C095953F
:101C400087950A94E2F780FD09C02197A8F7D12C67
:101C50008D2DCDB7DEB7E7E00C941432DC2EB70142
:101C60008C2F0E94F00D0E942108019771F3F0CF94
:101C70000F931F93CF93FC018581008111818823ED
:101C800091F0662381F0C8010E940D0EC82F682FC5
:101C9000C8010E946906B8018C2F0E94F00DCF91F7
:101CA0001F910F910895C8010E94A006C82FF3CF7D
:101CB000CF93DF93D82FC92F0E940D0E6D2F7C2F4D
:101CC0000E94F00D0E942108DF91CF910895FC0140
:101CD00084818823A1F0808191810E94580E282F51
:101CE00092959F70963091F060F4925F9F70923061
:101CF00030F481E0203F79F030F4283E30F080E08D
:101D000004C09A5FF3CF243FD1F7089581E0283EC5
:101D100018F0213FF9CF0895089585E290E00E94E0
:101D200012358A3A89F486E290E00E9412358C3F9F
:101D300059F487E290E00E94123591E0823209F076
:101D400090E0892F8170089580E0FCCFA8E0B0E09A
:101D5000ECEAFEE00C94FC318091ED049091EE04ED
:101D6000A091EF04B091F004BC01CD010E94AE0A35
:101D700011E0643671058105910578F10E947B0AB6
:101D8000DC01CB010296A11DB11D89839A83AB832F
:101D9000BC8380912301909124018F509B4F20910F
:101DA0002201422F50E0253010F044E050E0BE0107
:101DB0006F5F7F4F0E94533282E090E00E94643157
:101DC000182F882351F00E945E0A6093ED047093EF
:101DD000EE048093EF049093F004812F2896E3E0C3
:101DE0000C941832EF92FF921F93CF93DF93CDB7ED
:101DF000DEB729970FB6F894DEBF0FBECDBF7B01CB
:101E000080E090E00E946431182F81111BC010E027
:101E10008091FA049091FB04A091FC04B091FD0420
:101E2000F70180839183A283B383812F29960FB614
:101E3000F894DEBF0FBECDBFDF91CF911F91FF9011
:101E4000EF90089580911501482F50E0882311F0FC
:101E500041E050E060911601709117016F507B4F87
:101E6000CE0105960E9453328091FE049091FF04AA
:101E7000A0910005B0910105BC01CD010E94AE0A00
:101E80006E837F8388879987643671058105910504
:101E900038F482EF94E00E94EE0B9D818917B9F12E
:101EA00081E090E00E946431882309F4B0CF8091F2
:101EB0001D01482F50E0853010F044E050E0609163
:101EC0001E0170911F016F507B4FCE0101960E9441
:101ED000533282EF94E00E94EE0B9D81891397CFDD
:101EE0000E945E0A6093FE047093FF0480930005D5
:101EF0009093010589819A81AB81BC818093FA041A
:101F00009093FB04A093FC04B093FD0481CF8091D7
:101F1000F2049091F304A091F404B091F504898344
:101F20009A83AB83BC83E6CFCF93DF93682F81E0A6
:101F30006A3019F06D3031F480E00E941410DF91A6
:101F4000CF9108958091AE029091AF0226E0FC01FE
:101F5000AAEDB1E001900D922A95E1F7603E08F4F8
:101F600058C026E0FC0111922A95E9F7C091AE0213
:101F7000D091AF0246E050E0BE018AED91E00E94B0
:101F800046329E01215D3240892B41F1C90145E075
:101F9000969587954A95E1F741E050E0BA0102C075
:101FA000660F771F8A95E2F7CB016091D304709199
:101FB000D404862B972BB9016B5F7F4FE5E07695B4
:101FC0006795EA95E1F702C0440F551F6A95E2F75D
:101FD000842B952B9093D4048093D3042A5F3F4F96
:101FE0004091B002642F70E0C9010E94D931481BB2
:101FF000463010F4240F311D211572E0370710F020
:1020000020E030E02F523D4F3093AF022093AE02DC
:1020100096CFF6E06F9FB00111246D577E4F46E0DA
:1020200050E00E943D32A2CFCF93382FE091AE0214
:10203000F091AF02E15DF2402091B002622F70E0BA
:10204000CF010E94D931281B822F332361F066E033
:102050000E942432C82FC15010F4CF91089580E21D
:102060000E94940FF8CF9F01280F311D2115324097
:1020700018F080E0E0E0F0E08E0F9F2F911D8F526E
:102080009D4F9093AF028093AE02E7CFCF93DF9343
:10209000EC01FE018491811103C0DF91CF9108957D
:1020A0000E94940F2196F5CF0E94461081E00E9475
:1020B00014100895A4E1B0E0E0E6F0E10C94F231F0
:1020C000A090EA04B090EB0481E090E09093EB04E0
:1020D0008093EA04812C912CE12C6401F12C15C031
:1020E000F80125913491472D6F2D8E2D0E946C0D96
:1020F0000E5F1F4F739486E07812F2CFA6E0CA0EEF
:10210000D11CF394B8E0FB1639F08601000F111FC3
:102110000E5D174F712CE4CFE39480E3880E911C81
:10212000A4E0EA12DACF1A8219821C821B821E8274
:102130001D8218861F8284EB90E09A87898709EABE
:1021400011E04AE050E0B801CE0101960E945435FA
:10215000065F1F4F093FB1E01B0799F7FE013B9651
:1021600089E0DF011D928A95E9F78FEF9FEF988B49
:102170008F8787E08C8B7F014AE050E0B801C70170
:102180000E945435065F1F4F0934B2E01B07A1F7C8
:10219000B092EB04A092EA046496EDE00C940E3247
:1021A00080E00E94A30D60E088E290E00E9430355C
:1021B0000E945A100E94930D81E00E94A30D089581
:1021C000AAE0B0E0E6EEF0E10C94F33101E112E0B8
:1021D0008FEFC82E81E0D82E99EFE92EFF24F394DB
:1021E00027E0922E3EEFA32E31E0B32E8824839475
:1021F000D6010D931D936D014AE050E0B701CE0169
:1022000001960E940235F8013896DF01892D1D9252
:102210008A95E9F789819A81D80111969C938E93CA
:102220008F8112968C9312978D8113968C931397AE
:10223000888514968C931497898515968C93159799
:102240008B819C8117969C938E9316978A8587FD28
:1022500004C01E96BC92AE921D9780FF02C0F8018A
:10226000808681FF07C0D80118969C9118979260CC
:1022700018969C9382FF04C0F80190859460908723
:1022800083FF07C0D80118969C91189798601896FC
:102290009C9384FF04C0F80190859061908785FF2E
:1022A00007C0D80118968C911897806218968C9365
:1022B000015F1F4FBAE0EB0EF11CE9E4EE16E2E01D
:1022C000FE0609F095CF2A96ECE00C940F32282FE9
:1022D000CB01283070F44AE0249F90011124B90109
:1022E00067557E4F4AE050E00E94023580E090E062
:1022F00008958FEF9FEF0895AAE0B0E0E2E8F1E1E2
:102300000C94FD319C0197558F3F910509F070F4B5
:10231000BE016F5F7F4F822F0E946711892B31F4BE
:1023200089859A852A96E2E00C94193284EB90E034
:10233000F9CFA0E0B0E0EFE9F1E10C94F7317C01D6
:102340006B0164E670E088E70E94252FEC0197FDA1
:1023500012C000E010E0F701E00FF11F849164E685
:1023600070E00E94942FEC010F5F1F4FC016D10642
:1023700011F097FFF0CF0E94163081E0CD2B09F0CD
:1023800080E0CDB7DEB7E8E00C9413328091DC0436
:10239000882369F08091D904882349F062E070E0D5
:1023A00081E891E00E94991181111092D904089559
:1023B000A4E0B0E0EEEDF1E10C94FD318091DC049D
:1023C0008823F9F00E945E0ADC01CB01805A954116
:1023D000AF4FBF4F8093D5049093D604A093D704FA
:1023E000B093D8048091D90481110BC062E070E0F1
:1023F0008FE791E00E949911882319F081E0809382
:10240000D9042496E2E00C9419320F931F93CF93D2
:10241000DF93EC01FC0101900020E9F78F010150EE
:102420001109C017D10728F0DF91CF911F910F91AB
:10243000089589910E94940FF4CF1F921FB61F92A6
:1024400011248F939F93AF93BF9380919B0281112F
:1024500013C08091F6019091F701A091F801B0911D
:10246000F9014196A11DB11D8093F6019093F701EA
:10247000A093F801B093F901BF91AF919F918F9113
:102480001F901FBE1F9018952FB7F8948091F601EA
:102490009091F701A091F801B091F9012FBF089533
:1024A000CF93DF93C091040680910806C82B8091DA
:1024B0000306882339F10E94441220910C063091C2
:1024C0000D06821B930B8838934110F00E9423075E
:1024D000D091030680912A018823F1F080914F0664
:1024E00087FF1AC08DE120EB31E090E0F9014081D7
:1024F0002F5F3F4F41119F5F8150C0F791110E94A4
:102500002307CD2B8091710580958C2390917005C8
:10251000892BDF91CF91089585E028EA31E0E5CF5E
:1025200080912A01882359F180914F0687FF27C0A7
:102530000E9450128093AF0140E250E06EE075E0DF
:102540008EEA91E00E944632892BC1F080E2EEEAE9
:10255000F1E0AEE0B5E001900D928A95E1F7E091EF
:102560002E05F0912F05309749F086E08093AE015B
:102570000480F581E02D8EEA91E0099508950E948E
:1025800050128093A60148E050E060E375E086EACF
:1025900091E00E944632892B89F388E0E6EAF1E077
:1025A000A0E3B5E001900D928A95E1F7E0912E0548
:1025B000F0912F05309711F30280F381E02D86EA28
:1025C00091E0DBCF882339F090910406892B80932A
:1025D00004060E9490120895882339F0909108060D
:1025E000892B809308060E9490120895CF93C82FDC
:1025F0008823B1F18CEF8C0F813AA0F580912A01EC
:10260000882301F180914F0687FF1CC0EC2FE695CF
:10261000E695E695F0E0E255FE4F828190E04C2F82
:10262000477021E030E002C0220F331F4A95E2F7E5
:1026300082239323892B79F08C2F0E94310A0E94E8
:10264000901209C0E8EAF1E08191C817A9F321E0EE
:10265000EE3AF207C9F78C2F0E94FD090E949012F2
:10266000CF91089580E28C0F883068F4C77081E0C4
:1026700090E001C0880FCA95EAF7C0910406C82B04
:10268000C0930406EBCF8BE58C0F833038F42C2FEE
:102690002452330BC9010E94B109E2CFC85ACB3191
:1026A000F8F6EC2FF0E0EE0FFF1FE259FE4F8081AD
:1026B00091810E94D709D4CFCF93DF93EC01805E44
:1026C0009109089720F06CEE72E1209711F462EE08
:1026D00072E1CE010E943D068C2F0E94F612DF911E
:1026E000CF910895882339F19CEF980F913A28F4FF
:1026F0000E94310A0E949012089590E2980F98303B
:1027000050F4877091E001C0990F8A95EAF7892FFC
:102710000E941B07EFCF9BE5980F933028F480E0D1
:1027200090E00E94B1090895885A8B3120F480E02E
:1027300090E00E94D70908950F931F93CF93C82F5D
:1027400000E010E0893311F400E510E08C2F0E94C6
:10275000F6120115110539F48C2F0E947213CF91D6
:102760001F910F9108958FE99FE00197F1F700C045
:10277000000001501109EDCFA0E0B0E0E2ECF3E180
:102780000C94F831EC019881992309F49CC09130A4
:10279000E1F599818A81913021F422960E949C135F
:1027A00005C0923029F422960E94F6122196EBCFB2
:1027B000933021F422960E947213F8CF943011F0D6
:1027C0002196F4CF229620E030E06AE0AE014F5F20
:1027D0005F4F8053990B8A30910560F021153105C8
:1027E00029F38FE99FE00197F1F700C00000215025
:1027F0003109F4CF629FF001639FF00D11249C0119
:102800002E0F3F1F8981EA01E1CFE92FF0E0ED5063
:10281000F94FD490292F26952695269530E0F90179
:10282000ED51F94F84919770F901ED52F94FE49011
:10283000F12C092E02C0F594E7940A94E2F741E0E6
:10284000E422FF24F901ED53F94F049110E0092E21
:1028500002C0159507950A94E2F701701127E82F39
:10286000F0E002C0F595E7959A95E2F7E0FD0CC01F
:10287000E114F104A1F48D2D0E949C1301151105A2
:1028800009F494CF8CE28ACF81EE0E94F612E11413
:10289000F10479F48D2D0E949C1381EE07C086EE21
:1028A0000E94F6128D2D0E949C1386EE0E947213D8
:1028B000E5CF86EE0E94F6128D2D0E949C1386EEC7
:1028C0000E947213EACFCDB7DEB7E7E00C94143262
:1028D000882321F00E941B070E94901208958823EC
:1028E00041F08095909108068923809308060E9404
:1028F000901208951092040680912A018823C1F055
:1029000080914F0687FF14C0E0EBF1E08EE1DF011C
:102910001D928A95E9F780E090E00E94B10980E07D
:1029200090E00E94D709109208060E949012089524
:10293000E8EAF1E086E0EBCF0E947A142FEF84E31F
:102940009CE0215080409040E1F700C0000088E109
:102950009AE00FB6F894A895809360000FBE90930C
:102960006000FFCFAAE2B0E0E8EBF4E10C94FC31A8
:1029700085EE91E0FC0101962091F100208321E099
:102980008D3E9207B9F78091E601893009F456C06F
:10299000C8F4823009F4B3C0833009F482C08130B6
:1029A00071F18091E80083FFE7C08091E50190918B
:1029B000E6019A3008F0E0C0E92FF0E0E259FA4C65
:1029C0000C9430328A3009F489C08B3051F78091F1
:1029D000E501813231F78091E9019091EA01892B7B
:1029E00001F78091E800877F8093E8000E947F0BC9
:1029F0008091E70180932A010E947A14D2CF8091BE
:102A0000E501813A71F68091E800877F8093E800C4
:102A10008091E9019091EA01892B61F060E080E00A
:102A200090E070E00E94260B8091E8008B77809305
:102A3000E800B7CF68E08DEE91E0F3CF8091E5013B
:102A4000813209F0AECF8091E9019091EA018D7F4A
:102A5000892B09F0A6CF8091E800877F8093E8005A
:102A60008091E80082FF18C09091F3008091F200FD
:102A7000029731F48091F100813011F0863021F419
:102A80008091F1008093F5018091E8008B7780932D
:102A9000E8000E947F0B85CF8091EC048111E0CF8C
:102AA00080CF8091E501813A09F07BCF8091E901E7
:102AB0009091EA01892B09F074CF8091E800877F1B
:102AC0008093E8008091E80080FFFCCF80912A018C
:102AD0008093F1008091E8008E77D9CF8091E50155
:102AE000813209F05ECF8091E800877F8093E80013
:102AF0000E947F0B8091E8018093E10152CF809189
:102B0000E501813A09F04DCF8091E800877F8093FD
:102B1000E8008091E80080FFFCCF8091E101D8CFF0
:102B2000803889F0823841F58091E9018F708730D3
:102B300018F58093E9008091EB0085FB882780F9E8
:102B40001092E90006C08091E20190919C029111DF
:102B500082609091E800977F9093E8008093F10065
:102B60001092F1008091E8008E7723C0811116C089
:102B70008091E701813011F18091E80083FF0AC064
:102B80008091E800877F8093E8008091EB0080626D
:102B90008093EB00AA96E3E00C941832823061F740
:102BA0008091E701882389F01092E9008091E80084
:102BB000877F8093E8000E947F0BDECF81E0933017
:102BC00009F080E080939C02EFCF8091E9018F7043
:102BD0002FEF280F263080F68093E9002091EB003C
:102BE00020FFE2CF933031F48091EB00806280933C
:102BF000EB00DACF9091EB0090619093EB0021E035
:102C000030E0A90102C0440F551F8A95E2F74093B6
:102C1000EA001092EA008091EB008860E8CF811111
:102C2000ABCF1091E7011F778091E3008078812B73
:102C30008093E3008091E800877F8093E8000E9402
:102C40007F0B8091E80080FFFCCF8091E3008068DB
:102C50008093E30083E0111101C082E08093EC04D3
:102C60008BCF8058823008F087CF4091E701509198
:102C7000E8014C3D83E0580799F583E08A838AE2B6
:102C800089834FB7F894DE01139620E03EE051E2CD
:102C9000E32FF0E050935700849120FF03C082950A
:102CA0008F703F5F8F708A30C8F0895C90E08D93A1
:102CB0009D932F5F243161F74FBF8091E800877F9C
:102CC0008093E8006AE270E0CE0101960E94260B34
:102CD0008091E8008B778093E8004ECF805DE6CF4F
:102CE0008091E9019091EA01252F332723303105A6
:102CF00009F44AC078F52130310509F483C08BE529
:102D000090E0E3E7F7E02230310509F035CF20917C
:102D1000E800277F2093E8002091EB013091EC013F
:102D20008217930708F49C0140E02115310509F052
:102D30006EC041116CC08091E80082FDC9CF8091C6
:102D4000EC04882329F2853019F28091E80083FF92
:102D5000F2CFBECF2132310509F445C02232310510
:102D600009F00ACF8330910508F006CFFC01EE0F81
:102D7000FF1FE25BFE4F0190F081E02D855B9E4FCF
:102D8000DC018C9190E010C0CA019927423019F102
:102D90008330910568F4892BB1F4EEE1F8E0E49119
:102DA0008E2F90E0EEE1F8E0009709F4E5CEAFCF8A
:102DB000039709F0E1CEE0EEF7E0E4918E2F90E08A
:102DC000E0EEF7E0F1CFECE0F8E0E4918E2F90E058
:102DD000ECE0F8E0E9CFEEEFF7E0E4918E2F90E041
:102DE000EEEFF7E0E1CF8330910508F0C5CEFC01AE
:102DF000EE0FFF1FEC5AFE4F0190F081E02D89E0AD
:102E000090E085CF82E190E0EEECF7E080CF80911A
:102E1000EC04882309F45CCF853009F459CF809104
:102E2000E80083FD55CF8091E80082FD84CF80913A
:102E3000E80080FF7ACF9091F3008091F200211595
:102E4000310519F08830910550F041E0089709F0FC
:102E500040E08091E8008E778093E80066CF44914F
:102E60004093F1003196215031090196E8CF803826
:102E700009F082CE8091E800877F8093E8008091FE
:102E8000E3018093F1006ECE811176CE1091E701BF
:102E9000123008F071CE8091E800877F8093E800BF
:102EA0001093E3010E947F0B1123D1F084E0809303
:102EB000EC0442E061EC81E00E94070C42E261EC2C
:102EC00084E00E94070C42E261EC82E00E94070C61
:102ED00042E260EC83E00E94070C8091EC044CCE4F
:102EE0008091E30087FDE2CF81E0E1CFCF93DF93D4
:102EF000EC014A855B856E857F850E949B099B81DD
:102F00009095809108068923809308068C810E9401
:102F10001B070E94901286E0FE0111928A95E9F744
:102F2000DF91CF910895CF93DF93EC018D8181FDE7
:102F300017C082608D83809108069B81892B8093C6
:102F40000806809104069C81892B809304060E94C8
:102F50009012488559856E857F85CE010E949B0918
:102F600010927E0510927D058D8180FD03C0CE01FB
:102F70000E947617DF91CF9108951F93CF93DF932F
:102F8000182FA0917305B0917405109709F44AC0E9
:102F900010927605109275051092710510927005C9
:102FA0001696CD91DC911797CE019A9581159F4188
:102FB00008F4D07ED1E0C11101C0D0E01996ED91A6
:102FC000FC911A97309731F01B966D917C9180E0BF
:102FD0000995D823DD2339F08CEF8C0F813A30F539
:102FE0008C2F0E94310A1123A9F0E0917305F09112
:102FF0007405808584FD0EC080917205882351F090
:10300000808191819C01215031092F333E4710F47A
:103010000E94CE0A0E9490121092740510927305BD
:1030200010927205DF91CF911F9108950E94901226
:103030008C2F0E947213D7CF9091500692FF10C030
:1030400098E0899F90011124622B609309060E94E9
:103050004D060E94441290930B0680930A06089531
:103060000E944D06089590910306292F28232223BC
:1030700061F08095892380930306882339F00E94AC
:10308000441280930C0690930D06089580E090E022
:10309000F8CF9C014FB7F8948091F6019091F70119
:1030A000A091F801B091F9014FBF821B930B0895D5
:1030B000A0E0B0E0EEE5F8E10C94F831D62E172F41
:1030C000C42FD22F8823A9F0409301060E944412F6
:1030D0009093D9018093D801C77081E001C0880F17
:1030E000CA95EAF70E94E212CDB7DEB7E7E00C948A
:1030F000143280910106481337C08091D801909115
:10310000D9010E9449187C018D2D912F0E947C11BC
:10311000E816F90648F5CD130CC0802F0E949C13C9
:10312000D77081E001C0880FDA95EAF70E94681431
:10313000DBCFC77011E0812F01C0880FCA95EAF775
:103140000E94681480E28D0F883050F48D2F8770B4
:1031500001C0110F8A95EAF7812F0E94E212DDCF9C
:10316000802F0E949C13C0CFC77081E001C0880FE0
:10317000CA95EAF7DBCFA5E0B0E0E1ECF8E10C940A
:10318000ED317C01DC0114968C91882309F4E6C1B1
:1031900061E0C7010E94380E8C01F7018581882308
:1031A00019F180917D0590917E050097E9F008174F
:1031B0001907D1F0992774E0880F991F7A95E1F7E4
:1031C000FC01EA57FA4F2081246020838F579A4FE1
:1031D000DC010D931C930E9493171092080661E086
:1031E000C7010E94380E8C01F7015580552009F463
:1031F000BAC0C80197578038910508F0EDC0D02EAD
:10320000FFE0F01708F499C18FEF93E00E941235A8
:10321000811193C109E412E0D1103CC080912D01CD
:1032200090912E01A0912F01B091300189839A8352
:10323000AB83BC8368013FEFC31AD30AC8010E9465
:10324000123589831A82882309F477C1813009F005
:1032500084C0580142E0A40EB11CC6010E94123580
:10326000D82E8A83882309F468C1C5010E941235CB
:10327000C82E8FEF8D0D8330D8F4CB82CC2021F077
:10328000CE0101960E94BC13580153E0A50EB11C5B
:103290008501D0CF011524E0120709F44EC1C80101
:1032A0000E9412350F5F1F4F8111F4CFDA94B4CF13
:1032B0008BEF8D0D833040F5580183E0A80EB11CD3
:1032C000CB82CC2029F3C5010E9412358C83882340
:1032D00081F08B819C818130AFEF9A0710F0982F9D
:1032E0008827B6E0DB1651F0E7E0DE1651F00E94C9
:1032F000CF235801F4E0AF0EB11CCACF0E947A234D
:10330000F8CF0E949C23F5CF24E0D212C1CF580100
:1033100034E0A30EB11CC80103960E941235CC20E4
:1033200009F40BC1882309F408C18150990B4FEFB0
:10333000489F9001499F300D11244C2D4150550B51
:10334000240F351F2150310908F4A2CF8FE99FE0E7
:103350000197F1F700C00000F5CFCE0101960E9461
:10336000BC13560195CF0115A7E51A0708F4FAC05A
:103370000115B8E51B0780F56801E7E5DE1A6AE488
:1033800075E08C2D0E946711892B31F5C60154E040
:10339000880F991F5A95E1F7FC01EF57FA4F2281E8
:1033A000213009F087C020914A0530914B05232B2D
:1033B00099F020914C0530914D05232B69F0209117
:1033C0004E0530914F054091500550915105242BE9
:1033D000352B232B09F478C0D70115968C911597BE
:1033E000882309F49BC111963C911197309357059E
:1033F0004C914093560580E280932B011093550524
:1034000000935405C80190528115904208F067C09E
:10341000F801FF27D70116968C91803140F0ED33EB
:10342000F10528F4E555F44FE491E0932B01C80130
:1034300099278C33910508F06AC0FC01E555F44FDB
:1034400020811F922F939F938F931F924F931F92D0
:103450003F9381E391E09F938F931F9288E18F9335
:1034600088E595E09F938F930E946332D70115966C
:103470005C900FB6F894DEBF0FBECDBF552009F4A7
:103480004DC10E35FCE71F0709F454C00F352CE77A
:10349000120751F00D353CE7130709F040C1809148
:1034A0002C01882309F446C010922C0180E00E9470
:1034B000BD1743C0223009F08FCF20914E053091C7
:1034C0004F05232B09F488CFFC01EA57FA4F2081DE
:1034D0002E7F20838F579A4F0E9493177DCFC8016C
:1034E00090548115904148F4F7018681803108F4A9
:1034F0009ECFF801FF270C3394CFC8019A95811510
:103500009F4168F4F801FF270D3318F0C80120E24D
:1035100098CFE555F44FE491E0932B01F7CF0D33AD
:103520001105A0F7F801E555F44FE491E0932B0164
:10353000C8017FCF81E080932C01809109068770BC
:10354000882361F0D70115968C91882339F08091FA
:10355000500682FF03C082E00E94FF062596E2E14A
:103560000C94093280912C01882309F414C6480177
:1035700040EE841A91084090050680910406482A7E
:1035800080910306482A58E08516910408F0E3C0AC
:1035900098012770332781E090E001C0880F2A95B9
:1035A000EAF7552009F4D4C0482AD7018D919C919F
:1035B0000E94A00621E030E0190102C0220C331C59
:1035C0008A95E2F760907305709074051D82BD8145
:1035D000EB2FF0E0EE0FFF1FE150FE4FC080D180D7
:1035E000C114D10409F432C1411004C0F601828132
:1035F0008111F0C0D60113968C91139790E082212F
:103600009321892B09F4E6C018968C91982F977016
:103610009111E4C0B8E08B16910408F0D9C05110A4
:10362000E5C0F601A080B1800A151B0509F4D2C0DF
:10363000C614D70409F4CEC0D6011D96ED91FC91B5
:10364000309721F08081882309F4C4C0642DC6011D
:103650000E947A09882309F4BDC00A151B0511F4DC
:10366000511005C0A114B10409F0CCC0512C80E068
:103670000E94BD17D0927405C092730581E08093BB
:103680007205F60185818093710551100DC0AB283C
:1036900059F0808191819C0124503109213A3105F2
:1036A00008F0B8C00E94310AF601A680B780C501B3
:1036B0009A9581159F4110F420EEB22277247394DD
:1036C000C50101978F339E4708F0712CD6011996DA
:1036D000ED91FC911A97309731F01B966D917C918A
:1036E00081E00995782281E05826772009F4ABC063
:1036F000F601868197810E94130680937005C501AB
:10370000F8E08F16910408F088C00E94CE0A0E944B
:103710009012511040C50E9490120FCF512C8091F1
:103720002C01811124CFD70115968C919801375522
:103730002F3F310509F008F4B5C0F801E851FC4706
:10374000E730F10508F0C3C1E858FA4C0C94303268
:10375000809548222ACF511028C080917B059091F6
:103760007C050817190781F410927C0510927B05DF
:1037700010927705109278051092790510927A05CB
:103780001092760510927505E0917305F09174051D
:10379000309749F2808191810817190721F610921C
:1037A000720580E00E94BD17BECF10937C05009388
:1037B0007B050E945E0A609377057093780580937D
:1037C000790590937A051092760510927505EDCEE5
:1037D00051100CC09D819F5F9D83F9CEE8E08E164D
:1037E000910458F4552031F081FFF4CFD601AD900B
:1037F000BC901ECF82FFEECF14CF552059F380FF2F
:10380000E9CFF4CF80917B0590917C058A159B05CB
:1038100009F72CCF0E94721347CF0497813A910584
:1038200030F48A2D0E94FD0951107DCF74CF0E9483
:1038300090128FE39CE90197F1F700C000008A2DF8
:103840000E94F612F1CF0E949012EECF6114710423
:1038500009F469CFA8E08A16910408F0C2C0642D6B
:10386000C3010E947A09811103C081E00E94BD1743
:10387000F7018581882309F427C210920106C80147
:103880009057839708F451C107373CE7130709F0B5
:1038900026C281E00E944D0643E062E081E00E9482
:1038A000D4064BCEF801FF2734E0EE0FFF1F3A9508
:1038B000E1F79F012F573A4F6901EA57FA4F90817C
:1038C00080FB90F990838111A1C0D9011C964D9184
:1038D0005C911D971E966D917C91C9010E949B0978
:1038E000F601858181FFC4CFC6010E9476178091C1
:1038F0007D0590917E050817190709F0B9CF109240
:103900007E0510927D05D70115968C918111EEC030
:10391000F7018581C080D180882309F422C2C601C5
:103920000E940D0E182F682FC6010E946906B6016D
:10393000812F0E94F00D0E9421088C01D70115965D
:10394000BC9015971696AC90A2942FE0A22280917D
:1039500009068770882301F1CB2CBB20F1F0812F61
:10396000807F803461F080E2800F8830A8F0812F62
:10397000807E803221F4023078F0AA2069F08091B4
:10398000500682FF09C082E00E94FF06809109066E
:103990008770CC24C3948111C12C812F82958F70A4
:1039A000883009F4EBC208F0FEC1843008F0DEC1B3
:1039B000B12FBF70DB2E823008F406C2107F1032A8
:1039C00019F0D29480EFD822002309F434C20130D8
:1039D00009F499C2BB2009F4A5C2AA2009F449C27E
:1039E00009C2D3018D919C9111970817190741F4D1
:1039F000552009F4D4CE18968C9185FD94CED1CE65
:103A0000552009F490CEF3018085F7CF0E9444122F
:103A10009093800580937F05F60182818F5F82837A
:103A20008091080690910406892B83838091030678
:103A300084834681578166857785C6010E949B09EC
:103A4000D60115968C9181FD13C0902F812F9093F4
:103A50007D0580937E05F7018581811147C082E055
:103A600008375CE7150709F053CF0E94590614CFB9
:103A700090E080E0ECCF06E221EE41EE6AE17CE7E7
:103A80000E9458185ACD07E225EE45EE6BE17CE71F
:103A9000F7CF06E221EE40EE68E17CE7F1CF07E2E6
:103AA00025EE44EE69E17CE7EBCF06E221EE42EE43
:103AB0006CE17CE7E5CF07E225EE46EE6DE17CE7C1
:103AC000DFCF08E221E045EE6EE17CE7D9CF81113E
:103AD00026C00631FCE71F0709F0F6C080910206F8
:103AE0008111FBC089E20E94310A15CE10920106B5
:103AF000CBCE1092010606312CE7120709F0C4CE96
:103B0000809104068A7A91E0811101C090E090933F
:103B100002068111E0C089E20E94FD09FCCD1092ED
:103B20000106C8019057839730F784E090E00E9427
:103B30001A359093500680934F06F801E150F047F4
:103B4000E232F10520F4E158FA4C0C9430328091C5
:103B50004F06816080934F0660914F06709150062A
:103B600084E090E00E944E350E947A14E6CC809169
:103B70005006886080935006EFCF80914F06826098
:103B8000E9CF80914F068460E5CF80914F06886031
:103B9000E1CF809150068160EDCF80915006826028
:103BA000E9CF80914F068061D5CF80914F0680622A
:103BB000D1CF80914F068064CDCF0E947A1480913E
:103BC0004F068068C7CF80914F068C60C3CF80912D
:103BD00050068360CFCF80914F068E7FBBCF809100
:103BE0005006877FC7CF80914F068D7FB3CF8091DE
:103BF0004F068B7FAFCF80914F06877FABCF8091F1
:103C000050068E7FB7CF809150068D7FB3CF8091C5
:103C10004F068F7E9FCF80914F068F7D9BCF8091E7
:103C20004F068F7B97CF0E947A1480914F068F7733
:103C300091CF80914F06837F8DCF809150068C7FEE
:103C400099CF80914F0682FB992790F921E0922726
:103C500090FB82F990FB83F97DCF80915006982FDD
:103C6000909591708E7F892B90FB81F983CF9091F5
:103C70004F06892F8F7B96FF80646CCF0E947A1449
:103C800090914F06892F97FB87F9805863CF61E0A9
:103C90008EE090E00E9430355FCF60E0F9CF9091E8
:103CA0004F06892F8F7E94FF806154CF90914F06ED
:103CB000892F8E7F90FF81604DCF90915006892F84
:103CC000877F93FF886056CF07374CE7140709F0CA
:103CD000C6CE81E0CACE85E31FCF85E304CF083787
:103CE0008CE71807F1F00A359CE71907B1F1D8F411
:103CF0000130BCE71B0779F10330ECE71E0729F11F
:103D000001151C4709F004CE0E947A144FEF54E3CA
:103D10008CE0415050408040E1F700C000000E941C
:103D2000110B82E0B7CD0B352CE71207C1F00C3533
:103D30001C4709F0EDCD8091500682FB882780F961
:103D400091E089270E94550DE3CD6FEF7FEF80E072
:103D500090E00E944E350E949C1481E0F3CF80E0F9
:103D6000F1CFC6010E94A006182FE1CD843009F4DE
:103D7000EAC0CC2009F4D8C18091090680FDD4C1E5
:103D8000D70115961C928695869586950E944D06BC
:103D9000C7010E94BB188091090686958695869575
:103DA0000E945906C1C1893009F457C18A5F8F70DA
:103DB0008230F8F6023F09F061C1812F8F71B11096
:103DC0005AC10E944D0607C1103118F0D29490EFED
:103DD000D922BB20B9F0DD2069F080E2800F883065
:103DE00010F0011109C0809104068D29809304060A
:103DF0000E949012802F2FC0809108068D298093F9
:103E00000806F6CF802F0E947213DD2009F4B1CF8F
:103E100080E2800F883010F0011104C08D2D0E94C7
:103E20001B0706C0D094809108068D218093080658
:103E30000E9490129ECF8091500682FD16C0BB203A
:103E400069F0DD2039F0809104068D298093040605
:103E50000E94901280E00E94F6128BCF80E00E94B8
:103E60007213DD2009F485CFD9CFBB2071F1A110E9
:103E700004C08D2D0E94E2127CCFE1E0AE1211C091
:103E8000109103068D2D8123D81609F472CF0E945C
:103E9000441290930D0680930C061D29109303067F
:103EA00068CFF5E0AF1265CF8D2D0E94E2128D2D07
:103EB0000E943318809105069D2D9823D91609F488
:103EC00058CF8D298093050654CFA11012C08D2D97
:103ED0000E9468148D2D0E943318809105069D2D37
:103EE0009823992309F445CFD094D822D09205067F
:103EF00040CF21E0A2123DCF809104068D2188237E
:103F000009F437CFE4CFBB2029F035E03A1508F4A7
:103F100030CFAFCF44E04A1508F42BCF8D2D0E944F
:103F2000681427CFAA20D1F3093349F45FEF87EE55
:103F300093E0515080409040E1F700C00000802F96
:103F40000E94721316CF812F8695869583708823E1
:103F500061F0813009F00DCFC8019370B11002C03B
:103F600080E090E00E94D70904CFC8019370B1109F
:103F700002C080E090E00E94B109FBCE812F8370E7
:103F8000811134C0B11027C0402F4295469547702B
:103F9000440F440F802F8F70042E01C0880F0A94A5
:103FA000EAF70071002341F02FE030E001C0220F5A
:103FB0004A95EAF7022F0095169516951370123060
:103FC00081F0133061F020910606113039F0802B1A
:103FD00082230E9447060E94A009CBCE822B802B11
:103FE000F8CF802B909106068927F3CFBB2051F1A3
:103FF00010FFF1CF402F429546954770440F440F74
:10400000802F8F70042E01C0880F0A94EAF7007188
:10401000002341F02FE030E001C0220F4A95EAF77B
:10402000022F0095169516951370123089F01330F3
:1040300069F020910706113041F0802B82230E9405
:104040004A06C9CF823038F2D5CF822B802BF7CFEA
:10405000802B909107068927F2CF1F70BB2039F083
:10406000812F0E944D06802F0E94E212B4CF802F34
:104070000E946814812F0E945906ADCF033F70F44F
:10408000003FB9F0013FB9F1BB2009F472C0AA208A
:1040900009F46CC0802F0E94F6129DCF033FD9F027
:1040A000043F29F1B110F3CFA11071C0812F8F719E
:1040B000E2CFBB2069F0A4E0AA1508F48CCF1F71F1
:1040C00081E090E0012E01C0880F0A94EAF7C1CF89
:1040D000B5E0AB16F2CF80E0BB2009F4B0CF1F7182
:1040E00081E0012E01C0880F0A94EAF7A8CF8091E1
:1040F000500682FD06C0812F8F71BB2009F4BBCF13
:1041000060CEBB2011F1809109068770843089F45C
:104110001092090610920B0610920A06812F8F71D9
:104120000E9459060E94A00960E0C7010E94380E53
:1041300015CAE4E0EA15B0F31F71812F0E944D0605
:1041400063E0812F0E941C18EDCFF4E0FA1550F4C3
:104150001092090610920B0610920A0664E0812F55
:104160008F71F0CF81E00E94FF06DCCF812F8F712D
:1041700028CEAA2009F49ACF093349F42FEF37EE5D
:1041800043E0215030404040E1F700C00000802F64
:104190000E94721320CFF70185818111AACC0631CC
:1041A000FCE71F0709F49ACC07372CE7120709F040
:1041B000AFCB8FCDA0E0B0E0E0EEF0E20C94F831B0
:1041C00080914E06803108F049C080914D068823C9
:1041D00009F444C0C0910F0687E0D82E80910E06E6
:1041E0008C17E1F1EC2EF12CDC9EE0011124FE0194
:1041F000E05FF94F84818823B1F191818091490674
:10420000981331C090818091480698132CC0858105
:10421000811129C00281138180914A0690914B0639
:10422000081B190B60E088E496E00E94380E0E949B
:104230007C1108171907B8F480914E068F708061C1
:1042400080934E06CA5ED94F88818F7080618883C3
:1042500088E496E00E94BB180E94F506CDB7DEB751
:10426000E7E00C941432E7012196C770B7CFADE0B8
:10427000B0E0EDE3F1E20C94F0318C0186E0F8015E
:10428000DE01189601900D928A95E1F7F801C08041
:104290005180F580A280B380E48088E4882E86E097
:1042A000982E80914C06811118C0EE2099F0FF20C5
:1042B00009F44FC1C8010E94670E882309F449C15F
:1042C00087E0F801A8E4B6E001900D928A95E1F745
:1042D0000E94DA20FF24F3945DC0D0904D068091B7
:1042E0004A0690914B063501681A790A60E088E425
:1042F00096E0DD2009F4EBC00E94380E0E947C118C
:104300006816790608F09EC0EE2021F3E0904E0674
:1043100090914906F8018181FFE0FE1508F45BC029
:10432000981317C090914806F8018081981311C026
:10433000F1104BC08E2D8F70806180934E0688E403
:1043400096E00E94BB1880914E06F8018683F12CFE
:1043500021C0F1103AC040E0652D8C2D0E94990CCF
:1043600040E0652D8C2D0E94990CF82E8111EFCF25
:10437000888599850E94580E292F22952F70903498
:1043800070F49F702230A0F09923B1F0F80196816B
:10439000903190F48F2D2D96EFE00C940C322A5F23
:1043A0002F70223068F0C8010E94BB18FD2CF2CF9C
:1043B000992311F0882371F3805E883058F3F3CF8E
:1043C000803F40F3815F8230F9CF80914E0681605B
:1043D00080934E06BCCF981315C090914806F80103
:1043E000808198130FC0F1100DC0E682C8010E94B1
:1043F000BB1887E0F801A8E4B6E001900D928A9519
:10440000E1F768CFC8010E94670E882309F4A1C0B4
:10441000FF2009F49EC080914E06803208F450CFF0
:1044200080914806909149069A838983BC82AB8229
:1044300080914C068D831E82EF82CE0101960E94F0
:10444000BB183ECFD0904E06FFE0FD1550F088E43B
:1044500096E00E94BB1887E0F40111928A95E9F773
:1044600076CFEE2009F436CF90914906F80181818C
:10447000981311C090914806808198130CC0F110D8
:104480000AC0D682C8010E94BB1887E0F4011192CD
:104490008A95E9F71FCFC8010E94670E882309F4A7
:1044A00058C0FF2009F455C080914E06803208F4B0
:1044B00007CF80914806909149069A838983BC82F0
:1044C000AB8280914C068D831E82DF82B6CF0E9424
:1044D000380E0E947C116816790608F0BCCFEE20D9
:1044E00009F4F8CEFF20A9F190914906F8018181E5
:1044F000981325C0909148068081981320C0809120
:104500004A0690914B06A81AB90AF4EBAF16B1040B
:1045100008F06FCF80914E0680FD6BCF803108F49C
:1045200068CFF8018683982F907F903F09F45ECF83
:10453000982F907F905F8F70892B868357CFC8010B
:104540000E94670E8111BCCE80914E0681608093DF
:104550004E06C8010E94BB18BDCEABE1B0E0E3EB54
:10456000F2E20C94FC314E8B5F8B688F798F8A8FCF
:104570009B8F9111109208061D8A86E0FE017696A7
:10458000DE011F9601900D928A95E1F78091500609
:1045900082FF1FC00E94441220910A0630910B0630
:1045A000821B930B8838934138F08091090682FD75
:1045B00003C082E00E94FF060E94441220910C0674
:1045C00030910D06821B930B8838934110F00E94A6
:1045D00023078B89882329F061E0CE010F960E9482
:1045E000380E87E0FE013F96DE01189601900D928D
:1045F0008A95E1F7CE0108960E943721811110C0FB
:1046000087E0FE013896DE01119601900D928A95A1
:10461000E1F720910E0640910F068C8581110BC0A9
:1046200017E080910F0690910E0689132EC06B96AD
:10463000E3E00C94183230E0C901019687709927A5
:1046400050E08417950771F40E947A1410920E06B8
:1046500010920F0687E0E8E4F6E0DF011D928A95EC
:10466000E9F7DECF97E0929FD001939FB00D112420
:10467000A05FB94FFE01319601900D929A95E1F736
:1046800080930E060E94F506CBCF189FC00111241F
:10469000805F994F0E943721882349F280910F064D
:1046A00090E001968770992780930F06BACFA6E015
:1046B000B0E0EDE5F3E20C94FB310E9444128C0172
:1046C00080910C0590910D058017910779F0198262
:1046D0001A820E944412BC0149815A8180E090E014
:1046E0000E94AD2210930D0500930C052696E4E080
:1046F0000C941732A6E0B0E0E0E8F3E20C94FD3150
:104700009093090580930805811520E2920730F403
:104710000E945C132696E2E00C94193280EF8983A4
:104720008A830E9444128160BC0149815A8181E0E0
:1047300091E00E94AD22EECFA6E0B0E0E2EAF3E223
:104740000C94FB318C0190930905809308050115A9
:1047500080E21807B0F4802F0E947213C801805EB7
:104760009109089728F06FE674E10115110511F41D
:1047700068E674E1C8010E943D062696E4E00C94C8
:10478000173280EF89838A830E9444128160BC01C2
:1047900049815A8181E090E00E94AD22EECFCF9313
:1047A000DF93D82FC92F0E947A238D2F9C2F0E9430
:1047B0009C23DF91CF9108950F931F93CF93DF93A5
:1047C0008C01862F6AE475E00E946711892BB1F491
:1047D000C0914A05D0914B05209781F0F801828164
:1047E000833051F4CE010E94CF23CE010E94CF230B
:1047F000CE010E94CF2302C08430D0F7DF91CF9149
:104800001F910F9108950F931F93CF93DF938C0106
:10481000EB016AE475E08C2F0E946711892B09F087
:104820005AC0FE01FF27D80112968C911297E757C4
:10483000FD4F8130A9F415968C9182FD51C080FF07
:104840004FC082E0808380914C0590914D05009788
:10485000B9F480914A0590914B050097E1F110C0A1
:104860008230B9F515968C9182FD28C080FD0BC071
:1048700083E0808380914E0590914F05009701F170
:104880000E947A2328C084E0808380915005909113
:1048900051050097A9F780914A0590914B05009723
:1048A00011F10E94CF2380914C0590914D05009706
:1048B00039F780914A0590914B05E2CF85E08083DE
:1048C00080914A0590914B05009729F00E94CF23D3
:1048D000F0CF86E08083DF91CF911F910F910895F3
:1048E00081E08083B6CF80914C0590914D05B5CF86
:1048F0000F931F93CF93DF938C01EB016AE475E074
:104900008C2F0E946711892B71F4DD27C757DD4F6B
:104910008881F801128218828330F1F048F48130E6
:1049200059F0823081F0DF91CF911F910F9108955E
:104930008430B9F08530B9F780914A0590914B05E4
:10494000009789F306C080914C0590914D05009722
:1049500099F30E949C23E7CF80914E0590914F05DB
:10496000F6CF8091500590915105009791F72091D5
:104970004A0530914B0580914C0590914D052115CC
:104980003105F1F2009729F7C901E3CFA0E1B0E0CA
:10499000ECECF4E20C94F2311A821982FE013396A7
:1049A00086E0DF011D928A95E9F78AE5A82E81E06D
:1049B000B82E8E010F5F1F4F4801EE24E394F12CB7
:1049C00024E6C22E21E0D22EF50181915F018F3FB6
:1049D00009F441C0F894E82FE295EF70F0E021A1CE
:1049E0008F70A70102C0440F551F8A95E2F7CA01D4
:1049F000922F982B91A392A18095892382A37894DA
:104A000000C0EEE5F1E031E0712C21912F3F09F477
:104A100085C0A22FA295AF70A05EB0E08C9190E00F
:104A20002F7002C0959587952A95E2F781708111C4
:104A300075C0832F782A330FCE16DF0631F7F501C4
:104A4000319780818F3F11F00E943C0950EA5A95BE
:104A5000F1F7D8017C920F5F1F4FBEE5AB16B1E0B6
:104A6000BB0609F0B1CF48E050E0B40181E992E023
:104A70000E94463200919A0210E00E511B4F892B82
:104A800009F44EC088E0F401A1E9B2E001900D9272
:104A90008A95E1F781E08093D7010E9444129093B8
:104AA000D6018093D50180910205882309F491C035
:104AB0001A8619861C861B868091E0018A3008F0D0
:104AC00051C07E01E9E0EE0EF11C42EF5EE0B7015D
:104AD000C8010E941B0D6701882309F468C046EADB
:104AE0005EE0B701C8010E941B0D882309F45FC076
:104AF0001092E0018091990290E044E050E0B6010C
:104B00008E519B4F0E94463221E02093D401892B85
:104B100009F03FC06096EDE00C940E3280E08ACF41
:104B20008091D701882309F4BECF8091D50190915F
:104B3000D6010E944918059708F4B5CF44E050E02B
:104B400061E972E0C8010E944632892B41F084E09D
:104B5000E1E9F2E0D80101900D928A95E1F7109217
:104B6000D701A1CF8091D2019091D3010E94491821
:104B7000843F914008F0A5CF8091D401882351F261
:104B8000FE01399684E0DF011D928A95E9F71092C3
:104B9000D401E0919902F0E0EE51FB4F89859A85AE
:104BA000AB85BC8580839183A283B383B3CF80918F
:104BB000E0018F3F39F40E9444129093D301809317
:104BC000D201DACF8F5F8093E0018A3008F492CF70
:104BD000F2CFF80180819181A281B3818093F204A8
:104BE0009093F304A093F404B093F50482EF94E05F
:104BF0000E94EE0B8093F104C090F604D090F7046D
:104C0000E090F804F090F9048091CE019091CF01EA
:104C1000A091D001B091D101C816D906EA06FB06D1
:104C200009F478CFC092CE01D092CF01E092D001AA
:104C3000F092D1010E945E0AC61AD70AE80AF90A60
:104C4000C0920405D0920505E0920605F092070592
:104C500061CFCDB7DEB7AF970FB6F894DEBF0FBE0A
:104C6000CDBF85B7806885BF85B7806885BF84B7AD
:104C7000877F84BF0FB6F894A89580916000886103
:104C800080936000109260000FBE80E890E00FB645
:104C9000F89480936100909361000FBE8AE399E0DD
:104CA0009093A5018093A4010E9462090E94E010E4
:104CB0000E94CF0B0E943E0C8091E20084608093A2
:104CC000E20078948091EC04882399F08091E900C7
:104CD0001091EC001795112717958F70182B1092D3
:104CE000E9008091E80083FD0E94B2141F701093C8
:104CF000E90082E084BD93E095BD9AEF97BD809373
:104D00006E0010920405109205051092060510928F
:104D100007050E948D0E811102C00E94D01088EC00
:104D200090E02091E30027FD3BC7AFE3BCE911977A
:104D3000F1F700C000000197009799F70E94CF0B90
:104D40001092EC04109202051092030510920001DB
:104D5000809100018091000191E08927880F880FE0
:104D600080939A0294E0981B9093990284E90E94A0
:104D70003C0986E60E943C0987E90E943C0986ECD2
:104D80000E943C090EE511E094E6E92E91E0F92E2F
:104D9000F80181918F018F3F11F00E943C09E016CC
:104DA000F106B1F788E0E2EEF4E0DF01882E1D9213
:104DB0008A94E9F7E1E9F2E0DF011D928A95E9F7CB
:104DC00080E090E00E941A35863E9E4F21F40E94BA
:104DD0008D0E811168C066EE7EEF80E090E00E944B
:104DE0004E3560E082E090E00E94303581E08093B3
:104DF000060661E083E090E00E94303560E074E1F7
:104E000084E090E00E944E3560E086E090E00E94F1
:104E100030356FEF87E090E00E94303540E050E0A1
:104E2000BA0188E090E00E94423560E084E290E0C0
:104E30000E94303560E087E190E00E94303560E00C
:104E40008CE090E00E94303560E08DE090E00E94C0
:104E5000303519821A821B821C821D821E821F829B
:104E6000188648E050E068E170E0CE0101960E94AB
:104E7000203540E050E0BA0180E290E00E944235E7
:104E800080E00E94A30D0E94D01040E050E0BA01E3
:104E90008FE090E00E94423540E050E0BA0183E1AB
:104EA00090E00E94423582E090E00E9412358093AB
:104EB0009D0284E090E00E941A3590935006809302
:104EC0004F060E94C624EFEFF6E721E0E150F040E4
:104ED0002040E1F700C000000E94C624E0910305D5
:104EE00011E0E127EE0FEE0FF0E0EE51FB4F808175
:104EF00081FF08C06FEF7FEF80E090E00E944E35A9
:104F00000E94110B83E090E00E9412350E94470638
:104F1000809102058127880F8093D10480E88093D7
:104F2000B0020E941F2F6BE070E089EB99E00E94B5
:104F30009911882309F443C08091D10465E070E0A1
:104F400081FDD2C084EB99E00E9499118823B9F1C8
:104F50006DE070E082EA99E00E949911882379F16E
:104F60000E945E0A6BA77CA78DA79EA7DC01CB01E0
:104F7000805A9541AF4FBF4F8093D5049093D6048C
:104F8000A093D704B093D804E1EDF2E080E092E082
:104F9000DF019C011D9221503040E1F7F093AF02F8
:104FA000E093AE028FEF9FEF9093D4048093D304ED
:104FB00081E08093DC048093D9041092D204809124
:104FC0000205811102C00E94793081E091E0909346
:104FD0002F0580932E0522242394312C8091EC04FC
:104FE000853049F48091EC04853009F480C00E943A
:104FF0007A140E94A0090E94C6241EE9E12E12E044
:10500000F12E02EEC02E04E0D02ED601F7019191D0
:105010008D9126EA32E02E173F0709F4BCC098179D
:10502000B1F38090020510E077247394D6010D91BE
:105030006D01F70191907F01901639F19026B12C06
:10504000AA24A394892D8A218823B9F08820A9F065
:10505000B9821A830E9444129C838B837D8291E0E3
:10506000802F8A21811101C090E09E8349815A815D
:105070006B817C818D810E94AD22B394AA0CF6E0F5
:10508000BF12E0CFF701319700831F5F183071F630
:105090000E947B0AF0900205F11087C0F090DC04BA
:1050A000F110F7C00E94D8110E94A0099091DD0470
:1050B000891721F08093DD040E945E0A8091EC0440
:1050C000843009F08BCF83E08093E9008091E80081
:1050D00082FF84CF8091E80085FD21C28091E800A5
:1050E0008B778093E8007ACF8FEA99E02DCF80917B
:1050F000EC04843031F10E94C61110929B0248E109
:1051000050E080E40FB6F894A895409360000FBE7D
:105110008093600083B7817F846083BF83B78160A1
:1051200083BF7894889583B78E7F83BF0FB6F8943A
:10513000A895809160008861809360001092600063
:105140000FBE80919C02882309F44CCF0E94C62494
:10515000E2EEF4E08191811106C0AAEEB4E0AE1750
:10516000BF07C1F73FCF80E189BD82E189BD09B4A6
:1051700000FEFDCF8091D8008F7D8093D800809174
:10518000E00082608093E0008091E00081FDFCCF30
:105190000E947A1427CF981344CF0E945723F0908F
:1051A0000205FF2009F470C0F12C009175051091E3
:1051B000760501151105C1F12091AA023091AB02CB
:1051C0004091AC025091AD02CA01B9010E94AE0AF1
:1051D0006BA77CA78DA79EA78091A6029091A7029E
:1051E000A091A802B091A9022BA53CA54DA55EA552
:1051F000281739074A075B07B8F0C8010E945C13FB
:1052000010927605109275051092AA021092AB02C8
:105210001092AC021092AD021092A6021092A70258
:105220001092A8021092A902C0907D05D0907E0530
:10523000C114D10409F180917F05909180050E94ED
:1052400049188C01C6010E947C1180179107A0F4B7
:1052500080917D0590917E059927B4E0880F991F74
:10526000BA95E1F7FC01EA57FA4F208122FD04C00C
:105270008F579A4F0E9493178091DC04811109C0C7
:10528000FF2009F411CF0ECF8091DC04882309F4AC
:105290000BCF8091DA049091DB040E944918C297E9
:1052A00030F10E9444129093DB048093DA0481ED84
:1052B00092E09093AF028093AE0280910205882322
:1052C00009F46DC08FED99E00E94461080910706A9
:1052D000843009F461C008F049C0882309F454C03F
:1052E000823009F456C088E595E00E94051280914D
:1052F000D3049091D404892B99F08091DC04882305
:1053000079F08091D20481110BC00E94D8112091B4
:10531000D3043091D40480E02115310509F045C053
:105320008091D904882309F4ABCF0E945E0A6BA751
:105330007CA78DA79EA78091D5049091D604A091BB
:10534000D704B091D8042BA53CA54DA55EA5281B7C
:10535000390B4A0B5B0BDA01C9018F3F9F4FAF4FEF
:10536000BF4708F08DCF0E94C6118ACF8850873082
:1053700008F0B9CF95E501C096958A95EAF790FFB8
:10538000B2CF84EC99E002C087ED99E00E945410FE
:10539000AACF81ED99E0FACF8BEC99E0F7CF87EEB9
:1053A00099E00E944610A3CF8F5F082F10E06101A3
:1053B000082E02C0CC0CDD1C0A94E2F7A6014223A1
:1053C0005323452B89F39091D10490FD43C098015C
:1053D0003695279536952795922F8295880F80765A
:1053E0003FE1380F80930D012093100130930E019F
:1053F0009093110124E630E047E050E06BE071E06B
:1054000088E70E94C42F892B09F08ACFA801F5E014
:10541000440F551FFA95E1F78091D10480FD22C019
:105420004F525D4F04E610E020E230E060E488E790
:105430000E94EB2F892B09F073CFC094D0948091F8
:10544000D3049091D404C822D922D092D404C0921B
:10545000D30466CF880F880F880F37E0380F20E01D
:1054600093E0C0CF80E2A1EBB2E01D928A95E9F70C
:1054700008E611E064E6A62E61E0B62E7CE6472E33
:1054800071E0572EE7E09E2ED801ED918D01D501F8
:105490006D915D01640F752F711D6F527D4FF0E0AE
:1054A000EF54FD4F20E030E0B92DB21BBBA7E22C3A
:1054B000022E01C0EE0C0A94EAF73B0190E0D30102
:1054C0008D913D018E21ABA5A91BA770AFA7B0E0C0
:1054D000882E0FA401C0880C0A94EAF7B195A19513
:1054E000B109A770BB2701C08695AA95EAF788295C
:1054F000A0818A2B80839F5F983009F72F5F3F4FF1
:1055000031962830310581F64016510609F0BCCF9E
:1055100004E610E020E230E041EB52E087CF0E9449
:105520009E0B40E2E42EF12C8E010F5F1F4F88236B
:1055300061F18091E8008B778093E80000910A0583
:1055400010910B05E9810115110569F1EE3F09F094
:105550004EC08A81833020F08550833008F047C0E8
:10556000EA81EE3008F043C0F0E0EF55FA4C0C94BD
:1055700030328091F100D8018C93B1E0EB1AF10840
:10558000E114F104B1F20F5F1F4F8091E80085FD37
:10559000F0CF8091E8008B778093E8000E949E0B0B
:1055A000882399F3C6CFE43150F4EE2351F0E15053
:1055B000E33138F4F0E0E155FA4C0C943032EE3F30
:1055C00079F28FEF898313C01A8289E08B830FC031
:1055D0008A818230A9F08330E1F0813091F70E9416
:1055E0005E0A0E9436326B837C838D839E8340E209
:1055F00050E0BE016F5F7F4F82E00E94B80CEECC9E
:1056000088E290E00E9412351B821C821D828E83EC
:10561000EECF8091EA049091EB04892B41F388E06E
:10562000E2EEF4E0DE01139601900D928A95E1F727
:10563000DECF8A81823029F62B813C814D815E81CB
:105640002BA73CA74DA75EA7CA01B9010E9436321D
:1056500088E290E00E943035CACF4C816B818A810C
:105660000E94C10D9827892798279E838D83BFCFDD
:105670002D813E813227232732274C816B818A81FD
:105680000E946C0DB4CF0E945A10B1CF80E18A8382
:10569000AECF81E08A8387EB99CF8C81082F10E011
:1056A0008D3108F0A4CFCA80DB80DC24CD24DC243B
:1056B0000C0D1D1D7E0135E0E30EF11CC016D10658
:1056C00009F495CF80E047EBC41641E0D40628F4F6
:1056D000C601875B9D4F0E941235D7018D937D01D6
:1056E000BFEFCB1ADB0AEACF8091EA049091EB047A
:1056F000892B09F47CCF8C81E82EF12C8D3108F0B8
:1057000076CF0A811B81102701271027FE013196D1
:105710006F01EE0EFF1EEC14FD0409F468CF073B89
:10572000F1E01F0740F4D60114966C91C801875B25
:105730009D4F0E9430350F5F1F4FBFEFCB1ADB0A22
:10574000EACF0E94930D53CF84E0A1CF8C81082F24
:1057500010E08D3108F04BCFCA80DB80DC24CD24F3
:10576000DC240C0D1D1D7E01E5E0EE0EF11CC016C3
:10577000D10609F43CCF80E0F0E8CF16F1E0DF0677
:1057800020F4C60189960E941235D7018D937D01C0
:10579000BFEFCB1ADB0AEBCF8C81E82EF12C8D31D9
:1057A00008F025CF0A811B81102701271027003818
:1057B000E1E01E0708F01BCF80E891E0801B910B11
:1057C0008E159F0508F413CF8091EA049091EB04A5
:1057D000892B09F03FC04801F9E28F0E911C680146
:1057E00021E0C222DD24C114D10469F0C8018896E9
:1057F0000E9412359D8189279827892781159C470A
:1058000011F48FEF8D83C8018E0D9F1D570180FF0E
:1058100017C041E0A41AB10835E0632E712C6C0E5C
:105820007D1E6A0C7B1CC4018E0D9F1D0E941235CB
:10583000D3019C9181159C4719F48FEFF30180836C
:10584000E1E0F0E0EC0FFD1FEC0DFD1D2FEFCA14A1
:10585000DB0430F0FE0131966F01EE0EFF1E1CC01E
:105860009481858181159C4711F42483258342E02E
:10587000C40ED11C3296EBCF003851E0150738F436
:10588000D60114966C91C80189960E9430350F5F3D
:105890001F4FBFEFCB1ADB0AEC14FD0469F7A7CE4C
:1058A0008091EA049091EB04892B09F4A0CE40E2A8
:1058B00050E0BE016F5F7F4F82E00E94B80CFFEFA7
:1058C00021EE34E0F15020403040E1F700C000000C
:1058D00017CB88E0E2E4F1E0DE01919601900D92B1
:1058E0008A95E1F7FE0132968FE1DF011D928A95DC
:1058F000E9F786E0898388E07F96DE01159694CEED
:1059000084E8898381E08A831B821C8270CE8B812C
:105910009C81092E000CAA0BBB0B25E0880F991F58
:10592000AA1FBB1F2A95D1F7AC01BD01405E5F4F96
:105930006F4F7F4F803EEFEF9E07AE07BE0708F028
:1059400056CE8438F1E09F07A105B10508F04FCE8F
:10595000453821E052076105710520F044E851E027
:1059600060E070E0481B590BBC01695D754FCE01CA
:1059700001960E943D323BCE4AE150E06FEF70E06D
:10598000CE0107960E945C328091EA0489830A83E3
:105990001B821C821D8281E03ACE81E090E09093D0
:1059A0000B0580930A0582E390E09093E1048093D5
:1059B000E0040E9444129093DF048093DE0417CE2B
:1059C000012B51F11091E2048091DE049091DF04EB
:1059D0000E9449188536910540F111FF26C010FF3D
:1059E00024C00E9444129093DF048093DE048091CF
:1059F000E0049091E10401979093E1048093E00426
:105A0000892B51F410920B0510920A0581E090E069
:105A10009093EB048093EA048091EA048983809157
:105A20000A058A838091E004D1CD82E390E09093CF
:105A3000E1048093E004F0CF1092EB041092EA04AA
:105A4000D6CD40E250E06FEF70E0CE0101960E94AB
:105A50005C32CDCD8B81823009F44EC060F481116F
:105A600034C0FE0132968FE1DF011D928A95E9F77D
:105A700088E08983ABCD853009F474C0863009F0A5
:105A8000B6CD1C818AE0FE013596DE01919601902B
:105A90000D928A95E1F78BA19CA10E9455099CA3C8
:105AA0008BA38FEF183068F4FAE01F9FB001112428
:105AB00067507E4F4AE050E0CE0181960E945435F7
:105AC00080E089830E94E01092CD8C819AE0F92ECB
:105AD0008E010F5D1F4FF8018F2C11928A94E9F708
